:100000000C9417070C9436070C9436070C9436079B
:100010000C9436070C9436070C9436070C9436076C
:100020000C9436070C9436070C9436070C9436075C
:100030000C9436070C9436070C9436070C9436074C
:100040000C9436070C94E63E0C9436070C94360755
:100050000C9436070C943D070C9436070C94360725
:100060000C9436070C9436070C9436070C9436071C
:100070000C9436070C9479070C9436070C943607C9
:100080000C9436070C9436070C9436070C943607FC
:100090000C9436070C9436070C9436070C943607EC
:1000A0000C9436070C9436070C9436070C943607DC
:1000B0000C9436070C9436070C9436070C943607CC
:1000C0000C9436070C9436070C9436070C943607BC
:1000D0000C9436070C9436070C9436070C943607AC
:1000E0000C943607496E697469616C697A61746948
:1000F0006F6E206661696C656400456E7465722080
:1001000049646C65207374617465206572726F72E6
:100110000030363334323537313235002A3131311F
:1001200023002A393923002A39392A2A2A3123007F
:1001300041542B434D47533D353000303031313041
:100140003030433931383336303433353231373566
:100150003230303038464632343034323230343354
:100160003530343431303434323034334530343354
:10017000323034334530343335303032303034344B
:100180003130343345303433453034333130343426
:100190003930343335303433443034333830343319
:1001A000350041542B43474D490041542B43474DA3
:1001B0004D0041542B43474D520041542B4347536C
:1001C0004E0041542B435343530041540041542BA0
:1001D0004342430041542B43454552004154265667
:1001E0002B434253540041542B4342535400415437
:1001F0002B434253543D37312C302C310041544174
:100200000041542B434855500041542B4350415317
:100210000041542B434C4343004154440041542B70
:1002200043474154540041542B434744434F4E5499
:100230000041542B434744434F4E543D312C4950C9
:100240002C696E7465726E65740041542B4347517E
:100250005245510041542B4347514D494E004154A2
:100260002B43474143540041542B4347444154419D
:100270000041542B4347434C4153530041542B43BB
:10028000475245470041542B434950435347500080
:1002900041542B434D47460041542B434D454500A7
:1002A00041542B57494E440000000000000000005C
:1002B000005F0000000003000300227F22227F2253
:1002C00000242A6B2A12002313086462003A454571
:1002D0003A2800000002010000003E41000000003A
:1002E000413E0000002A1C1C2A000008083E0808A5
:1002F00000008040000000080808080000000040DE
:100300000000002010080402003E5149453E000054
:10031000427F400000625151514E00214145453B12
:10032000001816117F10002745454539003E494900
:100330004932000161110907003649494936002652
:100340004949493E00000012000000002012000050
:100350000008142241000014141414140041221443
:10036000080000060151090600000000000000001E
:10037000005F0000000003000300227F22227F2292
:1003800000242A6B2A12002313086462003A4545B0
:100390003A2800000002010000003E410000000079
:1003A000413E0000002A1C1C2A000008083E0808E4
:1003B000000080400000000808080800000000401D
:1003C0000000002010080402003E5149453E000094
:1003D000427F400000625151514E00214145453B52
:1003E000001816117F10002745454539003E494940
:1003F0004932000161110907003649494936002692
:100400004949493E0000001200000000201200008F
:100410000008142241000014141414140041221482
:100420000800000601510906003E414D4D2E00789E
:1004300016111678007F49494936003E4141412254
:10044000007F4141413E007F49494941007F090900
:100450000901003E41415132007F0808087F000039
:10046000417F410000304041413F007F0808146354
:10047000007F40404060007F0418047F007F040834
:10048000107F003E4141413E007F09090906003EC0
:100490004161215E007F09091966002649494932F8
:1004A0000001017F0101003F4040403F000718600C
:1004B0001807001F6018601F00631408146300030E
:1004C0000478040300615149454300007F41000066
:1004D0000002040810200000417F0000000000001E
:1004E0000000404040404040000000010200002069
:1004F00054545478007E48484830003844444428D6
:1005000000304848487E00385454541800107C127B
:100510000204000C52523C02007E080808700000E1
:1005200000740000004080807400007E1010106C89
:100530000000027E0000007C04780478007C040443
:10054000047800384444443800FC2424241800185B
:10055000242424FC007C080404080048545454203B
:1005600000083E484000003C4040403C001C204009
:10057000201C003C4030403C004428102844001C13
:1005800020A0A07C004464544C4400083641000084
:100590000000007F00000000413608000201010257
:1005A0000201007F7F7F7F7F0000000000000000CD
:1005B000005F0000000003000300227F22227F2250
:1005C00000242A6B2A12002313086462003A45456E
:1005D0003A2800000002010000003E410000000037
:1005E000413E0000002A1C1C2A000008083E0808A2
:1005F00000008040000000080808080000000040DB
:100600000000002010080402003E5149453E000051
:10061000427F400000625151514E00214145453B0F
:10062000001816117F10002745454539003E4949FD
:10063000493200016111090700364949493600264F
:100640004949493E0000001200000000201200004D
:100650000008142241000014141414140041221440
:100660000800000601510906003E414D4D2E00785C
:1006700016111678007F49494936003E4141412212
:10068000007F4141413E007F49494941007F0909BE
:100690000901003E41415132007F0808087F0000F7
:1006A000417F410000304041413F007F0808146312
:1006B000007F40404060007F0418047F007F0408F2
:1006C000107F003E4141413E007F09090906003E7E
:1006D0004161215E007F09091966002649494932B6
:1006E0000001017F0101003F4040403F00071860CA
:1006F0001807001F6018601F0063140814630003CC
:100700000478040300615149454300007F41000023
:100710000002040810200000417F000000000000DB
:1007200000004040404040400078161116780020FC
:1007300054545478007F4949493600384444442889
:1007400000304848487E007F4949494100107C12EA
:100750000204000C52523C02007E0808087000009F
:1007600000740000007F08081463007F0808146309
:100770000000027E0000007C04780478007C040401
:10078000047800384444443800FC24242418001819
:10079000242424FC007C08040408004854545420F9
:1007A00000083E484000003C4040403C001C2040C7
:1007B000201C003C4030403C004428102844001CD1
:1007C00020A0A07C004464544C4400083641000042
:1007D0000000007F00000000413608000201010215
:1007E0000201007F7F7F7F7F0020545454780020D7
:1007F00054545478007E48484830003844444428D3
:10080000000C52523C02000C52523C0200107C126E
:100810000204000C52523C02007E080808700000DE
:1008200000740000004080807400007E1010106C86
:100830000000027E0000003844444438003844443C
:10084000443800384444443800FC2424241800FC74
:1008500024242418007C080404080048545454201C
:1008600000083E484000003C4040403C001C204006
:10087000201C003C4030403C004428102844001C10
:1008800020A0A07C004464544C4400083641000081
:100890000000007F00000000413608000201010254
:1008A0000201007F7F7F7F7F0000000000000000CA
:1008B000000000000000000000183C3C3C1818003C
:1008C00018180000006666662400000000000000A2
:1008D00000000000006C6CFE6C6C6CFE6C6C000028
:1008E0000018187CC6C2C07C0686C67C181800009A
:1008F000000000C2C60C183066C6000000000038B8
:100900006C6C3876DCCCCC760000001818183000FF
:1009100000000000000000000000000C1830303023
:100920003030180C000000000030180C0C0C0C0CBF
:10093000183000000000000000663CFF3C6600002C
:100940000000000000000018187E181800000000C9
:10095000000000000000000000181818300000001F
:100960000000000000FE0000000000000000000089
:100970000000000000001818000000000002060C33
:10098000183060C080000000000000386CC6C6D679
:10099000C6C66C38000000000018387818181818FF
:1009A000187E00000000007CC6060C183060C6FEF1
:1009B00000000000007CC606063C0606C67C00005F
:1009C0000000000C1C3C6CCCFE0C0C1E0000000057
:1009D00000FEC0C0C0FC0606C67C00000000003857
:1009E00060C0C0FCC6C6C67C0000000000FEC60693
:1009F0000C183030303000000000007CC6C6C67CC9
:100A0000C6C6C67C00000000007CC6C6C67E0606C0
:100A10000C780000000000001818000000181800F2
:100A20000000000000001818000000181830000036
:100A30000000000C183060C06030180C000000008E
:100A4000000000007E00007E00000000000000604A
:100A500030180C060C18306000000000007CC6C680
:100A60000C181800181800000000007CC6C6DEDE56
:100A7000DEDCC07C000000000010386CC6C6FEC67C
:100A8000C6C60000000000FC6666667C666666FC02
:100A900000000000003C66C2C0C0C0C2663C00004E
:100AA000000000F86C66666666666CF80000000080
:100AB00000FE66626878686266FE0000000000FE64
:100AC00066626878686060F000000000003C66C202
:100AD000C0C0DEC6663A0000000000C6C6C6C6FE3C
:100AE000C6C6C6C600000000003C18181818181822
:100AF000183C00000000001E0C0C0C0C0CCCCC7838
:100B00000000000000E6666C6C786C6C66E6000025
:100B1000000000F060606060606266FE000000003F
:100B200000C6EEFED6C6C6C6C6C60000000000C699
:100B3000E6F6FEDECEC6C6C600000000007CC6C6D5
:100B4000C6C6C6C6C67C0000000000FC6666667CA1
:100B5000606060F000000000007CC6C6C6C6C6D655
:100B6000DE7C0E00000000FC6666667C6C6666E655
:100B700000000000007CC6C660380CC6C67C0000C1
:100B80000000007E7E5A18181818183C000000005B
:100B900000C6C6C6C6C6C6C6C67C0000000000C6E3
:100BA000C6C6C6C6C66C38100000000000C6C6C661
:100BB000C6D6D6FE6C6C0000000000C6C6C67C38E7
:100BC0007CC6C6C60000000000666666663C181853
:100BD000183C0000000000FEC68C183060C2C6FE43
:100BE00000000000003C303030303030303C00003D
:100BF00000000080C0E070381C0E060200000000FB
:100C0000003C0C0C0C0C0C0C0C3C000010386CC69E
:100C100000000000000000000000000000000000D4
:100C200000000000000000FF0030180C0000000071
:100C3000000000000000000000000000780C7CCCE8
:100C4000CC760000000000E06060786C6666667C30
:100C500000000000000000007CC6C0C0C67C000090
:100C60000000001C0C0C3C6CCCCCCC7600000000CE
:100C7000000000007CC6FEC0C67C00000000001C16
:100C80003632307C30303078000000000000000048
:100C900076CCCCCC7C0CCC78000000E060606C762C
:100CA000666666E60000000000181800381818187C
:100CB000183C00000000000606000E060606066648
:100CC000663C000000E06060666C786C66E60000E0
:100CD00000000038181818181818183C00000000F8
:100CE00000000000ECFED6D6D6D6000000000000C2
:100CF0000000DC666666666600000000000000001A
:100D00007CC6C6C6C67C0000000000000000DC6691
:100D100066667C6060F000000000000076CCCCCC01
:100D20007C0C0C1E000000000000DC76666060F0A9
:100D300000000000000000007CC6701CC67C0000A3
:100D4000000000103030FC303030361C0000000055
:100D500000000000CCCCCCCCCC7600000000000021
:100D60000000C6C6C66C381000000000000000007D
:100D7000C6C6D6D6FE6C0000000000000000C66C9F
:100D800038386CC60000000000000000C6C6C6C6A9
:100D90007E060C78000000000000FECC183066FED5
:100DA00000000000000E181818701818180E000027
:100DB000000000181818181818181818000000005B
:100DC00000701818180E1818187000000076DC0053
:100DD0000000000000000000000000000000001003
:100DE000386CC6C6FE000000FDFDFDFDEF00EE0400
:100DF0001B04FEFEFEFEEF904A047F3FEE04430616
:100E0000EF90098308000BAF0A00050006000700F9
:100E1000EF00EE0CEF900080EFB04902EF007F0191
:100E2000E181E202E276E1838001EF90000011248B
:100E30001FBECFEFD1E2DEBFCDBF00E00CBF14E09C
:100E4000A0E0B2E0E6E9F8EC02C005900D92AC3B00
:100E5000B107D9F715E1ACEBB4E001C01D92A7339F
:100E6000B107E1F70E94FE070C944A640C9400005D
:100E700063E47BE087E49DE308951F920F920FB631
:100E80000F9211242F938F939F93AF93BF938091D1
:100E9000030790910407019690930407809303073A
:100EA000809103079091040723E0883E9207B9F4EC
:100EB0008091FB069091FC06A091FD06B091FE0684
:100EC0000196A11DB11D8093FB069093FC06A09393
:100ED000FD06B093FE061092040710920307BF911F
:100EE000AF919F918F912F910F900FBE0F901F90F8
:100EF00018951F920F920FB60F9211248F93809125
:100F00007900809348128F910F900FBE0F901F9021
:100F10001895FC0124A135A1FCE628333F0781F593
:100F20008A960E945137611571058105910541F13D
:100F30002091FB063091FC064091FD065091FE0683
:100F4000621B730B840B950B6093F7067093F80686
:100F50008093F9069093FA068091FB069091FC0627
:100F6000A091FD06B091FE0680549745AF4FBF4F4C
:100F70008093FF0690930007A0930107B0930207A8
:100F800008950F9317B88FEF88B91AB88BB98DB140
:100F900088618DB9999A989A82E084BD83E085BD75
:100FA0008BEB87BDEEE6F0E08081826080837894F1
:100FB00080E895E268E041E020E000E00E943550E2
:100FC00080E895E268E041E020E00E94F35181E191
:100FD0000E94BF5382E00E94F54D82E20E94BF53FF
:100FE0000E943B4D83E30E94BF530E94734884E4F8
:100FF0000E94BF530E9418370F9108952F923F927D
:101000004F925F926F927F928F929F92AF92BF9218
:10101000CF92DF92EF92FF920F931F930E941837A7
:101020008FE399E1A1E081509040A040E1F700C03A
:1010300000000E94054D8EE00E94C84C81E00E9495
:10104000C84C82E084BD83E085BD8BEB87BD809179
:101050006E00826080936E0078942CE3A22EB12CF7
:10106000C12CD12C90E1692E9EE0792E812C912CFF
:1010700088E1282E312C412C512C0E941D372091C3
:10108000FB063091FC064091FD065091FE068091D2
:10109000FF0690910007A0910107B0910207281761
:1010A00039074A075B0738F16BE572EE88E898E884
:1010B0000E942C37882361F48091FB069091FC06F6
:1010C000A091FD06B091FE060296A11DB11D0BC0B8
:1010D0008091FB069091FC06A091FD06B091FE0662
:1010E000CC96A11DB11D8093FF0690930007A0939D
:1010F0000107B09302078091F7069091F806A0913E
:10110000F906B091FA060097A105B10509F4B5CF2B
:101110002091FB063091FC064091FD065091FE06A1
:101120008091C0049091C104A091C204B091C30405
:10113000281739074A075B0708F49FCF8091FB0601
:101140009091FC06A091FD06B091FE060196A11DAE
:10115000B11D8093C0049093C104A093C204B093C6
:10116000C304E090F706F090F8060091F90610919C
:10117000FA068091FB069091FC06A091FD06B091C5
:10118000FE06E80EF91E0A1F1B1F80E39AE2A0E08C
:10119000B0E0E80EF91E0A1F1B1FE0925012F092F9
:1011A00051120093521210935312C801B701A601B5
:1011B00095010E94F56060935612CA01B901A6011B
:1011C00095010E94F5606093BD12C801B701A401AA
:1011D00093010E94F560CA01B901A20191010E9428
:1011E000F5606093571281E00E94C84C80915712BD
:1011F00090E06AE472E14AE050E00E9427618AE4EC
:1012000092E10E94274D80E092E00E94274D80915C
:10121000BD1290E06AE472E14AE050E00E9427616A
:101220008AE492E10E94274D80E092E00E94274DDF
:101230008091561290E06AE472E14AE050E00E9428
:1012400027618AE492E10E94274D17CFCF92EF9257
:101250000F931F9380E060E040E020E00E94F35392
:101260000E94D85480E00E94095580E060E04FEA77
:1012700023E80FEF1FEF78E0E72E0E941C5D8EE160
:101280006EE14EE028E000E00E947E598EE062E3CD
:1012900040E524ED31E90FEF1FEF50E1E52ECC24BE
:1012A0000E94715AFFCF84B392E0892784BB8FEBF1
:1012B00094EDA1E081509040A040E1F700C0000013
:1012C0000895EF92FF921F93CF93DF93E82EE701EB
:1012D0007E01F92EE70110E18EB181278EB9888158
:1012E00099810E94AF3BF8CFEF92FF921F93CF936B
:1012F000DF93E82EE7017E01F92EE70118E08EB1B9
:1013000081278EB9888199810E94AF3BF8CFEF92F7
:10131000FF921F93CF93DF93E82EE7017E01F92E12
:10132000E70112E084B3812784BB888199810E9400
:10133000AF3BF8CF0FB6F8940F920E94AF5F0E94B8
:101340001C600F900FBE82E390E00E94AF3BF2CF93
:101350002F923F924F925F926F927F928F929F92C5
:10136000AF92BF92CF92DF92EF92FF920F931F93B3
:10137000ACE3AA2EB12CC12CD12CF0E16F2EFEE0F3
:101380007F2E812C912CE8E12E2E312C412C512CDA
:101390000E941D372091FB063091FC064091FD060E
:1013A0005091FE068091FF0690910007A0910107E1
:1013B000B0910207281739074A075B0738F16BE538
:1013C00072EE88E898E80E942C37882361F48091B7
:1013D000FB069091FC06A091FD06B091FE060296D8
:1013E000A11DB11D0BC08091FB069091FC06A09140
:1013F000FD06B091FE06CC96A11DB11D8093FF069F
:1014000090930007A0930107B09302078091F7061D
:101410009091F806A091F906B091FA060097A105FF
:10142000B10509F4B5CF2091FB063091FC0640913F
:10143000FD065091FE068091C0049091C104A091D8
:10144000C204B091C304281739074A075B0708F4A0
:101450009FCF8091FB069091FC06A091FD06B09174
:10146000FE060196A11DB11D8093C0049093C10496
:10147000A093C204B093C304E090F706F090F8067E
:101480000091F9061091FA068091FB069091FC06F6
:10149000A091FD06B091FE06E80EF91E0A1F1B1F63
:1014A00080E39AE2A0E0B0E0E80EF91E0A1F1B1FDD
:1014B000E0925012F0925112009352121093531274
:1014C000C801B701A60195010E94F560609356120C
:1014D000CA01B901A60195010E94F5606093BD1291
:1014E000C801B701A40193010E94F560CA01B901C6
:1014F000A20191010E94F5606093571281E00E9461
:10150000C84C8091571290E068E572E14AE050E0E3
:101510000E94276188E592E10E94274D80E092E0D9
:101520000E94274D8091BD1290E068E572E14AE08B
:1015300050E00E94276188E592E10E94274D80E0FB
:1015400092E00E94274D8091561290E068E572E18A
:101550004AE050E00E94276188E592E10E94274D11
:1015600017CF2F923F924F925F926F927F928F92FE
:101570009F92AF92BF92CF92DF92EF92FF920F9322
:101580001F930CE3A02EB12CC12CD12C10E1612EA5
:101590001EE0712E812C912CB8E12B2E312C412C88
:1015A000512CE090F706F090F8060091F9061091A2
:1015B000FA068091FB069091FC06A091FD06B09181
:1015C000FE06E80EF91E0A1F1B1F80E39AE2A0E048
:1015D000B0E0E80EF91E0A1F1B1FE0925012F092B5
:1015E00051120093521210935312C801B701A60171
:1015F00095010E94F56060935612CA01B901A601D7
:1016000095010E94F5606093BD12C801B701A40165
:1016100093010E94F560CA01B901A20191010E94E3
:10162000F560609357120E94AF5F8CE291E00E94D8
:10163000AF3BB7CF0FB6F8940F920E94AF5F0E94F6
:101640001C600F900FBE82E390E00E94AF3BF2CF90
:101650002F923F924F925F926F927F928F929F92C2
:10166000AF92BF92CF92DF92EF92FF920F931F93B0
:10167000DF93CF93CDB7DEB7A0970FB6F894DEBF58
:101680000FBECDBF08E512E15AE2C52E52E0D52EBD
:1016900040E4A42E42E0B42E7E010894E11CF11C2B
:1016A0003BE5832E32E0932E2DE6622E22E0722E51
:1016B00098ED492E92E0592E83E9282E82E0382EAB
:1016C0000FB6F8940F9282E092E00E94CB378DE043
:1016D0000E94B3378AE00E94B33780E00E940D0E6B
:1016E00080E00E940D0E00D000D0EDB7FEB731961D
:1016F000ADB7BEB712961C930E931197D382C282D8
:10170000848315820E945A61EDB7FEB736960FB6F4
:10171000F894FEBF0FBEEDBFC8010E94CB378DE02D
:101720000E94B3378AE00E94B33780E066EC74E031
:101730000E94D0248093F60600D000D0EDB7FEB70B
:101740003196ADB7BEB712961C930E931197B38224
:10175000A282848315820E945A61EDB7FEB7369645
:101760000FB6F894FEBF0FBEEDBFC8010E94CB3785
:101770008DE00E94B3378AE00E94B337C70163E56A
:1017800072E042E00E94E6248093F60600D000D08A
:10179000EDB7FEB73196ADB7BEB712961C930E9358
:1017A000119793828282848315820E945A61EDB7D9
:1017B000FEB736960FB6F894FEBF0FBEEDBFC80158
:1017C0000E94CB378DE00E94B3378AE00E94B33786
:1017D0004B855C856D857E85C7010E94432980937A
:1017E000F6062DB73EB72A5030400FB6F8943EBFEC
:1017F0000FBE2DBFEDB7FEB73196ADB7BEB712968F
:101800001C930E93119773826282848315828B8559
:101810009C85AD85BE8586839783A087B1870E940E
:101820005A61EDB7FEB73A960FB6F894FEBF0FBEF9
:10183000EDBFC8010E94CB378DE00E94B3378AE02C
:101840000E94B337D2010D900020E9F7AD0141505D
:101850005040485D5240C70168ED72E02CEB34E027
:101860000E9470278093F606EDB7FEB738970FB643
:10187000F894FEBF0FBEEDBF3196ADB7BEB712965E
:101880001C930E9311973382228284831582809158
:10189000BC049091BD04978386830E945A61EDB782
:1018A000FEB738960FB6F894FEBF0FBEEDBFC80165
:1018B0000E94CB378DE00E94B3378AE00E94B33795
:1018C000C7010E9437290F900FBE88EE93E00E9457
:1018D000AF3BF6CE8DB188618DB9999A989A0E94E6
:1018E000C10780E060E00E94914E86EB92E00E948A
:1018F0002A4E80E061E00E94914E87EC92E00E94C7
:101900002A4E0E940F5F0E94AF5F0E941C608FEB07
:1019100094EDA1E081509040A040E1F700C00000AC
:10192000F2CF8FE799EAA3E081509040A040E1F721
:1019300000C000000E94C10780E061E00E94914E5B
:1019400087EC92E00E942A4E80E060E00E94914E77
:1019500086EB92E00E942A4EFFCF8038910508F175
:101960006115710561F08F3F910509F0E0F4FC010C
:10197000EE0FFF1FED5CFD4F2081318116C0E3E3C8
:10198000F3E020E030E0419151918417950729F070
:101990002F5F3F4F20383105B1F720583F4F30704F
:1019A00004C09C0102C020E030E0C90108958FEF1F
:1019B0008EBD0DB407FEFDCF8EB50895A09A0E948E
:1019C000D70C08951CBC80EC84B980EB85B9479A8C
:1019D000809133048160809333040895CF93DF9323
:1019E0000E94D70CC0E0D0E00E94D70C8F3F69F076
:1019F0008FE295E70197F1F700C000002196C2330E
:101A0000D10591F720E030E002C021E030E0C901CB
:101A1000DF91CF910895A0980E94EE0C009729F4D1
:101A20000E94DE0C20E030E002C021E030E0C9017D
:101A30000895EF92FF920F931F93DF93CF930F922E
:101A4000CDB7DEB7282F7A018B0187FF0CC087E363
:101A500040E050E0BA0129830E94190D29818230AB
:101A600008F044C02F7729830E94DE0C0E940B0DE2
:101A700029810097D1F1822F80648EBD0DB407FEBD
:101A8000FDCF812F9927AA27BB278EBD0DB407FE56
:101A9000FDCFC801AA27BB278EBD0DB407FEFDCF21
:101AA000BB27A12F902F8F2D8EBD0DB407FEFDCF2C
:101AB000EEBC0DB407FEFDCF222321F0283021F02B
:101AC00081E003C085E901C087E88EBD0DB407FE43
:101AD000FDCF2C3011F40E94D70C1AE00E94D70CD5
:101AE00087FF04C01150D1F701C08FEF0F90CF9145
:101AF000DF911F910F91FF90EF9008950F931F9327
:101B0000DF93CF930F92CDB7DEB78C0169830E942C
:101B1000EE0C6981009749F16EBD0DB407FEFDCF53
:101B20006D3F31F180E0F80190819EBD0DB407FE5C
:101B3000FDCFF80191819EBD0DB407FEFDCF815010
:101B400019F00E5F1F4FEFCF8FEF8EBD0DB407FE64
:101B5000FDCF8FEF8EBD0DB407FEFDCF0E94D70CD9
:101B60008F7121E030E0853029F020E030E002C0C4
:101B700021E030E0C9010F90CF91DF911F910F91CB
:101B80000895EF92FF920F931F93CF93DF93EC0191
:101B90008B0144E1E42EF12C0E94D70CEFE2F5E733
:101BA0003197F1F700C000000894E108F108E11452
:101BB000F10411F08F3F81F38E3F29F58FEF8EBD39
:101BC0000DB407FEFDCF9EB598838EBD0DB407FE04
:101BD000FDCF9EB599838EBD0DB407FEFDCF9EB59A
:101BE0009A838EBD0DB407FEFDCF9EB59B83045036
:101BF000104011F02496E3CF0E94D70C0E94D70C1E
:101C000021E030E002C020E030E0C901DF91CF9157
:101C10001F910F91FF90EF900895CF92DF92EF9276
:101C2000FF920F931F93DF93CF9300D000D0CDB7D7
:101C3000DEB7882309F0DDC08091330481FDD6C072
:101C400047988FE59AEE0197F1F700C000008FEFFB
:101C500085B98FEB84B982E58CBD91E09DBD8CBDCB
:101C60000AE00E94D70C0150E1F701E210E080E0A9
:101C700040E050E0BA010E94190D0150104019F0E7
:101C80008130A9F7C6C08AEF90E00E94BA378DE094
:101C90000E94B3378AE00E94B3378FEF9EE9A4E237
:101CA00081509040A040E1F700C0000079C00E9440
:101CB000D70CD7018D937D01AC15BD05C1F78B8184
:101CC000813009F06DC08C818A3A09F069C00DC07D
:101CD000EFE2F5E73197F1F700C000000894E10862
:101CE000F108E114F10421F40CC06AE0E62EF12CB5
:101CF00089EA40E050E060E070E40E94190D88231A
:101D000039F78AE340E050E0BA010E94190D8823B8
:101D100009F046C00E94D70CD8018D938D01AC15F7
:101D2000BD05C1F7898186FF39C09CE03AC089EAC8
:101D300040E050E0BA010E94190D823018F492E0A0
:101D400029EA02C091E021E00AE010E009C0EFE2D8
:101D5000F5E73197F1F700C000000150104061F045
:101D6000822F40E050E0BA012D839E830E94190D1E
:101D70002D819E81882359F7AFE2B5E71197F1F7DE
:101D800000C0000080E140E052E060E070E09E832F
:101D90000E94190D9E81882319F403C094E001C0AC
:101DA00090E0909307079E830E94DE0C9E8199230A
:101DB00041F0809133048E7F8093330480E58CBDA5
:101DC00015C00E94E20C84EE90E00E94BA378DE0CC
:101DD0000E94B3378AE00E94B3378FEF9EE9A4E2F6
:101DE00081509040A040E1F700C000008091330492
:101DF00001C081E026960FB6F894DEBF0FBECDBFBE
:101E0000CF91DF911F910F91FF90EF90DF90CF90D6
:101E1000089588E04AEA51E060E070E00E94190D00
:101E2000813009F084CF8E010F5F1F4F55E0C52E22
:101E3000D12CCC0EDD1E78013ACF882319F4809185
:101E40003304089581E008950F93CF93DF93EB015E
:101E5000BA01A901882309F041C0002309F43EC05A
:101E60008091330480FD3CC08091070783FD07C04B
:101E7000E9E0440F551F661F771FEA95D1F701303F
:101E800069F481E10E94190D882309F5CE0160E013
:101E900072E00E94C10D0097C9F419C082E10E944E
:101EA000190D8823A1F4CE0160E072E00E94C10DFB
:101EB000009729F0015019F0C050DE4FF4CF8CE0AC
:101EC00040E050E0BA010E94190D01C000E00E94FC
:101ED000DE0C81E0002329F480E003C084E001C02F
:101EE00083E0DF91CF910F910895CF92DF92EF922F
:101EF000FF920F93CF93DF93EB0169017A0188235F
:101F000009F056C0002309F453C08091330480FDCA
:101F100051C08091330482FD4FC08091070790E04B
:101F200083FD07C0F9E0CC0CDD1CEE1CFF1CFA950C
:101F3000D1F7013071F488E1B701A6010E94190DB3
:101F4000882379F5CE016EEF0E947E0D009731F562
:101F500028C086709070009739F0402F50E060E004
:101F600070E087E90E94190D89E1B701A6010E947E
:101F7000190D8823B1F4CE016CEF0E947E0D0097FD
:101F800029F0015019F0C050DE4FF5CF80E090E00D
:101F90006DEF0E947E0D009719F003C000E001C0B4
:101FA00001E00E94DE0C81E0002339F480E005C0EE
:101FB00084E003C083E001C082E0DF91CF910F9104
:101FC000FF90EF90DF90CF900895EF92FF920F93E4
:101FD0001F93DF93CF93CDB7DEB761970FB6F89419
:101FE000DEBF0FBECDBF8A01882309F064C17A012C
:101FF0006430A1F4FA018081882321F0813009F056
:102000005AC103C00E94E20C07C088B18095881FA6
:102010008827881FFA01818380E050C180913304B2
:1020200080FD4BC16A3009F404C16B3058F4613053
:10203000F1F06130A0F0623009F46EC0633009F055
:1020400030C170C06C3009F4FBC06C3008F4F6C0CD
:102050006D3009F401C16E3009F023C110C10E9436
:102060000B0D009709F41FC10E94DE0C1EC189E010
:1020700040E050E0BA010E94190D882309F013C115
:10208000CE01019660E170E00E94C10D009709F455
:102090000AC1998192959695969593705A8549852E
:1020A000913089F4852F90E00196342F20E0820F43
:1020B000931FA0E0B0E07AE0880F991FAA1FBB1F12
:1020C0007A95D1F7B0C0429546954695437088857C
:1020D00090E0880F991F880F991F840F911D01961A
:1020E0002F8130E023703070322F2227330F330FCF
:1020F000820F931FA0E0B0E02E812F704B85441F0C
:102100004427441F240F2E5F352F3370330F230FC6
:1021100030E0295030402BC080E092E0FA019183FA
:102120008083C3C08091070782FF29C08DE840E00B
:1021300050E0BA010E94190D882309F0B4C00E9432
:10214000D70CCE01019660E170E00E94C10D0097AE
:1021500009F4A9C030E3E32E0E94D70CEA94E1F71A
:102160002B8522952F7080E190E0A0E0B0E004C0C4
:10217000880F991FAA1FBB1F2A95D2F754C089E068
:1021800040E050E0BA010E94190D882309F08BC08D
:10219000CE01019660E170E00E94C10D009709F444
:1021A00082C0909107074B858C8591FF1AC0881FCC
:1021B0008827881F90E0019650E04F735070440FBD
:1021C000551F840F951F2E852295269526952370E1
:1021D00030E02150304002C0880F991F2A95E2F765
:1021E00020C0282F30E023703070B3E0220F331F5F
:1021F000BA95E1F7829586958770280F311D2F5F7C
:102200003F4F50E04C775070559547955595479501
:102210004F5F5F4F249FC001259F900D349F900D0D
:102220001124A0E0B0E0F80180839183A283B383FE
:102230003CC080910707FA01808337C089E001C064
:102240008AE040E050E0BA010E94190D882359F558
:10225000C80160E170E020C08AE340E050E0BA01CC
:102260000E94190D8823F9F40C5F1F4F0E94D70CB0
:10227000F70181937F01E017F107C1F716C08DE8E0
:1022800040E050E0BA010E94190D882361F40E94D9
:10229000D70CC80160E470E00E94C10D009729F4DA
:1022A00002C084E003C081E001C080E0898B0E940D
:1022B000DE0C898903C084E001C083E061960FB61B
:1022C000F894DEBF0FBECDBFCF91DF911F910F916C
:1022D000FF90EF90089580910507882319F08150B1
:1022E0008093050780910607882319F08150809319
:1022F00006071092330408958EBD0DB407FEFDCF7E
:102300008EB50895DF93CF930F92CDB7DEB72C989B
:10231000962F9F71892B69830E947C11698167FFC9
:1023200003C08FEF0E947C118FEF0E947C112C9ACA
:102330000F90CF91DF910895DF93CF930F92CDB798
:10234000DEB72C986F71862B49830E947C114981DE
:10235000842F0E947C112C9A0F90CF91DF910895C9
:102360002C988FEF0E947C112C9A1092080787EB13
:102370009BE00197F1F700C0000008951F93282FFC
:1023800030E02F7130702B313105A4F4182F1295E5
:102390001695137080910807181761F080EA6FE1B5
:1023A00043E00E949C1180E86FE1412F0E949C1144
:1023B000109308071F910895DF93CF930F92CDB725
:1023C000DEB7682F69830E94BE1180E069810E9498
:1023D00082110F90CF91DF9108950F931F93182FC3
:1023E0000E94BE1180E0612F0E948211082F612F90
:1023F0006F5F80E00E948211582F40E0202F30E074
:10240000242B352BC9011F910F9108951F93DF9342
:10241000CF930F92CDB7DEB7182F69830E94BE11FC
:1024200080E4612F49810E949C110F90CF91DF9130
:102430001F9108951F93DF93CF930F920F92CDB703
:10244000DEB7182F69837A830E94BE1180E4612F62
:1024500049810E949C11612F6F5F80E47A81472F30
:102460000E949C110F900F90CF91DF911F910895C2
:102470001F93DF93CF930F92CDB7DEB7182F6983E9
:102480000E94BE1180EA612F49810E949C110F9029
:10249000CF91DF911F9108951F93DF93CF930F92F8
:1024A000CDB7DEB7182F69830E94BE1180E8612F77
:1024B00049810E949C110F90CF91DF911F91089547
:1024C0000F931F93CF93DF93EC018B012C988AE33A
:1024D0000E947C1106C08FEF0E947C1189930150ED
:1024E000104001151105B9F72C9ADF91CF911F917A
:1024F0000F9108950F931F93CF93DF93EC018B01FE
:102500002C988AE70E947C1105C089910E947C1159
:102510000150104001151105C1F72C9ADF91CF91A0
:102520001F910F910895682F84ED0E94061282ED8D
:1025300061E00E944C128AEE0E94DC1180FDFBCF0C
:1025400082ED61E00E94381288ED0E94ED1108953D
:10255000CF93DF93982FEB0184ED692F0E94061231
:1025600086EDBE010E941A128AEE0E94DC1180FDE7
:10257000FBCFDF91CF910895CF93DF93EC0184B12E
:10258000866184B923982C9A80E58CBD8DB58160D5
:102590008DBD0E94B01188E060E070E00E941A12C8
:1025A0008CE060E070E00E941A128AE06FEF79E13F
:1025B0000E941A1210920A071092090780EC6DE02F
:1025C0000E94061281EC60E00E94061282EC63E336
:1025D0000E9406128AEC60E072E00E941A1284ECFB
:1025E00065E10E94061286EC62E10E94061287EC09
:1025F0006CE00E94061284EE68810E94061285EE4D
:1026000069810E94061282EE6A810E94061283EEA0
:102610006B810E94061280EE6C810E94061281EE90
:102620006D810E94061280E060E071E00E94A812B5
:1026300080E160E071E00E94A81284E166E774E046
:102640000E94A8128FE164E00E944C12DF91CF91AA
:1026500008950F931F93CF93DF938C01EB010DC06F
:102660008CE10E94DC1181FF08C08FE160E80E94CC
:102670004C128FE160E80E9438128FE10E94DC1159
:1026800083FDEECF82E060E07AE10E941A1284E3DB
:1026900094E061E070E00E947A12C801BE010E94DD
:1026A0007A1284E060E07AE10E941A12BE01605062
:1026B000764E86E00E941A128FE168E00E944C126A
:1026C000DF91CF911F910F910895EF92FF920F9399
:1026D0001F93DF93CF9300D00F92CDB7DEB77C016D
:1026E000162F072F89E30E94DC118823E9F120913E
:1026F000090730910A0780E0B9010E941A1289E0A7
:1027000097E062E070E00E946012CE01019662E004
:1027100070E00E946012CE01039662E070E00E94B9
:1027200060128B8187FF0FC089819A81049798017D
:10273000032F122F8017910708F48C01C701B801ED
:102740000E94601202C000E010E0609109077091E1
:102750000A07615070407F718CE00E941A128EE16E
:1027600060E40E944C1202C000E010E0C8010F902B
:102770000F900F900F90CF91DF911F910F91FF90CD
:10278000EF900895282F392FD901862F972FFC011C
:1027900002C081918D93415050408FEF4F3F5807B9
:1027A000C1F70895282F392FF90101C061934150D5
:1027B00050408FEF4F3F5807C9F70895282F392F02
:1027C000D901862F972FFC014115510559F02D9104
:1027D000819130E0281B31094150504021153105CD
:1027E00099F302C020E030E0C9010895CF93DF9350
:1027F000EC01CB01BA0162507040804090402C8DBA
:102800003D8D4E8D5F8D22503040404050406217CC
:1028100073078407950788F42A8130E040E050E090
:102820000E94A3609B01AC0188A599A5AAA5BBA5A0
:10283000280F391F4A1F5B1F03C020E030E0A901A9
:10284000B901CA01DF91CF910895FC012BE030E07E
:1028500080E0982F9795992797958695892B919148
:10286000890F21503040A9F70895FC01009779F0B5
:102870008081882361F0868197818617970739F4D4
:1028800081810E941D0F80FF04C083E0089589E0CC
:10289000089580E00895EF92FF920F93CF93DF9316
:1028A000EC019A01AB0180E3E82EF12CEC0EFD1E49
:1028B0008981B70101E00E94240F882361F5FE01A0
:1028C000E15DFD4F308120E0FE01E25DFD4F808142
:1028D00090E0822B932B2AEA85359207F1F4C70109
:1028E000C69666E374E043E050E00E94DE13009772
:1028F000B1F0CE018E579F4F6AE374E045E050E09F
:102900000E94DE13009769F4C85ADF4F8881881F40
:102910008827881F07C083E005C082E003C080E0ED
:1029200001C081E0DF91CF910F91FF90EF9008956A
:102930002F923F924F925F926F927F928F929F92CF
:10294000AF92BF92CF92DF92EF92FF920F931F93BD
:10295000DF93CF93CDB7DEB728970FB6F894DEBFDD
:102960000FBECDBFFC01142FA081B1818C9180538B
:102970008A3058F411969C9111979A3331F412963B
:10298000B183A083882309F0D7C220900B0930902F
:102990000C09DB0111963C922E922114310409F4AA
:1029A000CDC2F1018081882359F081810E941D0FE1
:1029B00080FD06C0112309F4C3C282FFC1C2C4C294
:1029C000D1011C9211961C9280E00E940D0E80FD98
:1029D000B9C2112311F082FDB7C2C10140E050E03D
:1029E000BA010E944B148130E1F5F101EE50FE4F27
:1029F0008081882309F4ACC2F101E750FE4FC0800A
:102A0000DD24EE24FF24FC2CEE24DD24CC24F10173
:102A1000E850FE4F808190E0A0E0B0E0DC01992713
:102A20008827C82AD92AEA2AFB2AF101EA50FE4F50
:102A3000808190E0A0E0B0E0C82AD92AEA2AFB2AE7
:102A4000F101E950FE4F908180E0A0E0B0E0C82A9B
:102A5000D92AEA2AFB2AC101B701A6010E944B1418
:102A600003C0CC24DD247601833009F46FC28823AF
:102A700009F06EC2F10134AD20E083AD90E0822B0D
:102A8000932BF2E080309F0709F062C2F101E95B0D
:102A9000FF4F908180E0F101EA5BFF4F608170E0C1
:102AA000682B792B80E090E0611571058105910517
:102AB00079F5F101E95AFF4F608170E080E090E024
:102AC000962F882777276627F101EA5AFF4F208142
:102AD00030E040E050E0A90133272227622B732B1E
:102AE000842B952BF101EC5AFF4F208130E040E020
:102AF00050E0622B732B842B952BF101EB5AFF4F87
:102B0000308120E040E050E0622B732B842B952B2A
:102B1000D10158966D937D938D939C935B97F101B2
:102B2000E05CFF4F2081F101238330E040E050E082
:102B30000E94A36069837A838B839C83D101DF9693
:102B40009C91DF9780E0DE968C90DE979924882A0E
:102B5000992AAA24BB24A7019601280D391D4A1DD4
:102B60005B1D2D833E834F83588790962D933D9315
:102B70004D935C939397DD961C91DD9712961C9371
:102B80001297F101EE5BFF4F908180E0F101EF5B66
:102B9000FF4FE081F0E0E82BF92B1996FC93EE93C0
:102BA0001897AC5BBF4F9C9180E0D101AD5BBF4FEC
:102BB0006C9170E0682B792B80E090E061157105D5
:102BC0008105910579F5D101AD5ABF4F6C9170E047
:102BD00080E090E0962F882777276627D101AE5AAC
:102BE000BF4F2C9130E040E050E0A901332722276D
:102BF000622B732B842B952BD101A05BBF4F2C91A3
:102C000030E040E050E0622B732B842B952BD101F8
:102C1000AF5ABF4F3C9120E040E050E0622B732B55
:102C2000842B952B34E0F695E7953A95E1F72F0143
:102C300066247724681979098A099B0929813A81D0
:102C40004B815C81621B730B840B950B64197509B6
:102C500086099709212F30E040E050E00E94F5609E
:102C60002E5F3F4F4F4F5F4FD1015C962D933D93A9
:102C70004D935C935F97273FBFE03B07B0E04B0766
:102C8000B0E05B0758F0273FEFEF3E07E0E04E076C
:102C9000E0E05E0708F076C112E001C011E0898132
:102CA0009A81AB81BC812D813E814F815885820FF5
:102CB000931FA41FB51FF10184A395A3A6A3B7A3D7
:102CC0002D813E814F815885420E531E641E751E14
:102CD00089819A81AB81BC81480E591E6A1E7B1E78
:102CE000D10198964D925D926D927C929B978FEF59
:102CF0009FEFDC01F101808B918BA28BB38B14824F
:102D0000133009F003C1EF59FF4F908180E0F101CA
:102D1000E05AFF4F208130E0282B392B40E050E073
:102D20002C0D3D1D4E1D5F1DD10154962D933D93DD
:102D30004D935C9357971A961C921A97B101605D58
:102D40007F4F11968C9101E00E94240F882309F097
:102D5000DDC0F101E15DFD4F308120E0F101E25D78
:102D6000FD4F808190E0822B932BBAEA85359B073B
:102D700009F0CCC0F10183A990E0A0E0B0E0B82F49
:102D8000AA279927882722A930E040E050E0A9012E
:102D900033272227822B932BA42BB52B20A930E09D
:102DA00040E050E0822B932BA42BB52B31A920E0DF
:102DB00040E050E0822B932BA42BB52B8235F2E51B
:102DC0009F07F1E6AF07F1E4BF0709F09FC0F101EB
:102DD000E95EFD4F808190E0A0E0B0E0B82FAA2727
:102DE00099278827F101EA5EFD4F208130E040E01D
:102DF00050E0A90133272227822B932BA42BB52B3C
:102E0000F101EC5EFD4F208130E040E050E0822B8C
:102E1000932BA42BB52BF101EB5EFD4F308120E00D
:102E200040E050E0822B932BA42BB52B823722E776
:102E3000920721E4A20721E6B20709F067C0F10179
:102E4000E15EFD4F808190E0A0E0B0E0B82FAA27BE
:102E500099278827F101E25EFD4F208130E040E0B4
:102E600050E0A90133272227822B932BA42BB52BCB
:102E7000F101E45EFD4F208130E040E050E0822B24
:102E8000932BA42BB52BF101E35EFD4F308120E0A5
:102E900040E050E0822B932BA42BB52BF1018487CB
:102EA0009587A687B787E55EFD4F808190E0A0E01B
:102EB000B0E0B82FAA2799278827F101E65EFD4FD9
:102EC000208130E040E050E0A90133272227822B07
:102ED000932BA42BB52BF101E85EFD4F208130E050
:102EE00040E050E0822B932BA42BB52BF101E75E41
:102EF000FD4F308120E040E050E0822B932BA42B4B
:102F0000B52BF101808B918BA28BB38BD1019C9659
:102F10001D921D921D921C929F971C9380910D09EA
:102F200090910E09019690930E0980930D091796C2
:102F30009C938E93169704C08BE00BC08CE009C065
:102F400080E007C083E005C08AE003C081E001C0E3
:102F50008DE028960FB6F894DEBF0FBECDBFCF919F
:102F6000DF911F910F91FF90EF90DF90CF90BF9076
:102F7000AF909F908F907F906F905F904F903F9019
:102F80002F900895F101E15AFF4F808190E0A0E079
:102F9000B0E0B82FAA2799278827F101E25AFF4FFE
:102FA000208130E040E050E0A90133272227822B26
:102FB000932BA42BB52BF101E45AFF4F208130E075
:102FC00040E050E0822B932BA42BB52BF101E35A68
:102FD000FF4F308120E040E050E0822B932BA42B68
:102FE000B52BF10184A395A3A6A3B7A313E068CEE4
:102FF000AF92BF92CF92DF92EF92FF920F931F9307
:10300000CF93DF936C017B018B01075F1F4FEC01B6
:103010008E859F85A889B9890097A105B10509F416
:103020007FC0EA89FB892485DF01C80160E070E088
:10303000422F50E0487050708C013D913032A1F029
:10304000353009F435EE4115510529F0032F0154AF
:103050000A3108F4305EEC013993CE018E016F5FC6
:103060007F4F6830710541F7AF01485F5F4F308592
:103070003032D1F0DC013EE23D93049630E0207125
:1030800030708D01EA016991AE01603269F021155D
:10309000310529F0762F71547A3108F4605E6D9312
:1030A0008D01A817B90769F78385D70118968C9306
:1030B000878D90E0A0E0B0E0B82FAA279927882755
:1030C000268D30E040E050E0A90133272227822BF3
:1030D000932BA42BB52B248D30E040E050E0822BC5
:1030E000932BA42BB52B358D20E040E050E0822BB4
:1030F000932BA42BB52BE70188839983AA83BB83E9
:10310000318D20E0808D90E0822B932B9D838C83EA
:10311000378920E0868990E0822B932B9F838E83D2
:10312000F8011082D70156960D911C915797011501
:10313000110589F1E6018E859F85A889B9890097D7
:10314000A105B10519F1888D998DEFEF8F3F9E078D
:10315000E9F0CE88DF885801C0E0D0E010C060E020
:1031600070E00E94AD0C009789F0D5018D935D0150
:103170002196F701808D918DC817D9073CF4D601AF
:103180008D919D916D01009751F702C0C0E0D0E094
:10319000C00FD11F1882DF91CF911F910F91FF9027
:1031A000EF90DF90CF90BF90AF9008956F927F9295
:1031B0008F929F92AF92BF92CF92DF92EF92FF9247
:1031C0000F931F93CF93DF93EC014A015B01CCA4D3
:1031D000DDA4EEA4FFA4C416D506E606F70609F49E
:1031E0004CC08C818823A1F1E0E36E2E712C6C0E13
:1031F0007D1E8981B301A701960101E00E94750F30
:103200008823E9F51C82888D998DAA8DBB8D28A114
:1032100039A14AA15BA1820F931FA41FB51FC81635
:10322000D906EA06FB06A0F41B8110C0888D998D93
:10323000AA8DBB8DC80ED91EEA1EFB1E8981B30163
:10324000A701960101E00E94750F1150123070F72E
:1032500081149104A104B10481F0BE01605D7F4F2F
:103260008981A501940101E00E94240F882339F48B
:103270008CA69DA6AEA6BFA603C080E001C081E0DB
:10328000DF91CF911F910F91FF90EF90DF90CF9042
:10329000BF90AF909F908F907F906F9008957F9296
:1032A0008F929F92AF92BF92CF92DF92EF92FF9256
:1032B0000F931F93CF93DF93EC016A017B014230A0
:1032C00051056105710508F4BCC08C8D9D8DAE8DD6
:1032D000BF8D481759076A077B0708F0B2C088A05E
:1032E00099A0AAA0BBA08881823009F450C0833085
:1032F00009F46AC0813009F0A9C08A01000F111FCA
:10330000040F151F16950795A801452F55274695BB
:1033100060E070E0480D591D6A1D7B1DCE010E94C2
:10332000D618882309F092C0F801F170EC0FFD1F48
:1033300070A80F5F1F4FA801452F5527469560E0E5
:1033400070E0480D591D6A1D7B1DCE010E94D618E4
:10335000882309F07BC0272D30E011700C0F1D1F52
:10336000F80190A980E0282B392BF1E0CF22DD2451
:10337000C114D10431F044E0369527954A95E1F720
:1033800020C040E050E03F704070507062C0452F58
:10339000562F672F7727480D591D6A1D7B1DCE01BB
:1033A0000E94D618882309F051C0F601EE0FFF1FC6
:1033B000F170EC0FFD1F91A980E020A930E0282BCF
:1033C000392B40E050E045C097E0769567955795DA
:1033D00047959A95D1F7480D591D6A1D7B1DCE0161
:1033E0000E94D618882391F5F601EE0FFF1FEE0F0D
:1033F000FF1FF170EC0FFD1F23A930E040E050E00B
:10340000522F44273327222782A990E0A0E0B0E082
:10341000DC0199278827282B392B4A2B5B2B80A985
:1034200090E0A0E0B0E0282B392B4A2B5B2B91A930
:1034300080E0A0E0B0E0282B392B4A2B5B2B5F709B
:1034400008C021E030E040E050E003C02FEF3FEF44
:10345000A901B901CA01DF91CF911F910F91FF908E
:10346000EF90DF90CF90BF90AF909F908F907F9024
:103470000895EF92FF920F931F93CF93DF93EC0188
:103480008B017B836A834E815F81688579854130BA
:1034900051056105710509F47AC0EC81FD81848DC7
:1034A000958DA68DB78D481759076A077B0708F0D9
:1034B0006EC0411551056105710599F480859185AE
:1034C0000817190708F063C0C80124E0969587958E
:1034D0002A95E1F7A0E0B0E024A135A146A157A1CB
:1034E0003CC0E280FF2484E0EE0CFF1C8A95E1F7EB
:1034F0001FC00E944F19AB01BC014F3F8FEF58070F
:103500008FEF68078FEF780709F43FC0423051050D
:1035100061057105E0F1EC81FD81848D958DA68DAD
:10352000B78D481759076A077B0788F50E191F09D9
:103530008C819D810E151F05E0F64A875B876C879D
:103540007D870E94F6139B01AC01C801B4E09695FB
:103550008795BA95E1F7A0E0B0E0820F931FA41F12
:10356000B51F8E879F87A88BB98B8C819D81C09654
:103570000F701070A5E0000F111FAA95E1F7800FE2
:10358000911F9B8B8A8B80E003C081E001C082E0A9
:10359000DF91CF911F910F91FF90EF9008954F927F
:1035A0005F926F927F928F929F92AF92BF92CF92D3
:1035B000DF92EF92FF920F931F93CF93DF93EC0173
:1035C0006A017B012801390142305105610571050D
:1035D00008F4ABC08C8D9D8DAE8DBF8D48175907FB
:1035E0006A077B0708F0A1C088A099A0AAA0BBA089
:1035F0008881823009F462C0833009F475C081305B
:1036000009F08FC08A01000F111F0C0D1D1D1695AA
:103610000795A801452F5527469560E070E0480DB5
:10362000591D6A1D7B1DCE010E94D618882309F002
:1036300079C0C8019170E1E0CE22DD24C114D1042B
:1036400051F0FE01E80FF91F30A93F70242D22959B
:10365000207F232B01C0242D8C0F9D1FFC0120AB4C
:103660000F5F1F4F81E08C83A801452F552746959A
:1036700060E070E0480D591D6A1D7B1DCE010E945F
:10368000D618882309F04EC01170C114D10449F036
:1036900094E076946794579447949A95D1F7942D33
:1036A00008C0FE01E00FF11F90A9907F252D2F701B
:1036B000922B0C0F1D1FF80190AB34C0452F562FD5
:1036C000672F7727480D591D6A1D7B1DCE010E946B
:1036D000D618882339F5F601EE0FFF1FF170EC0FB5
:1036E000FD1F40AA51AA1EC0E7E076956795579541
:1036F0004795EA95D1F7480D591D6A1D7B1DCE01EE
:103700000E94D618882371F4F601EE0FFF1FEE0F0A
:10371000FF1FF170EC0FFD1F40AA51AA62AA73AA05
:1037200001C082E091E09C8301C082E0DF91CF91F3
:103730001F910F91FF90EF90DF90CF90BF90AF90CF
:103740009F908F907F906F905F904F9008952F92F1
:103750003F924F925F926F927F928F929F92AF9221
:10376000BF92CF92DF92EF92FF920F931F93DF935E
:10377000CF9300D00F92CDB7DEB71C012A013B01D9
:10378000DC015C968D919D910D90BC91A02D89835B
:103790009A83AB83BC83411551056105710581F4A2
:1037A000F10184849584A684B78481149104A104D2
:1037B000B104F1F088169906AA06BB06C8F41DC02C
:1037C000C1010E944F199B01AC0162307105810556
:1037D000910508F488C089819A81AB81BC81281742
:1037E00039074A075B0708F48DC05301420105C041
:1037F00071E0872E912CA12CB12C750164010894E5
:10380000C11CD11CE11CF11C89819A81AB81BC8156
:10381000C816D906EA06FB0660F092E08916910404
:10382000A104B10408F464C062E0C62ED12CE12CDE
:10383000F12CC101B701A6010E944F199B01AC01F7
:103840006115710581059105A9F06F3FAFEF7A070A
:10385000AFEF8A07AFEF9A0709F454C061307105E2
:103860008105910509F44EC0C814D904EA04FB048B
:1038700031F63EC08C2CBD2CAE2C9F2CC101A60174
:10388000B7010FEF1FEF2FEF3FE00E94CF1A882301
:1038900099F5411451046104710449F0C101B30167
:1038A000A201860197010E94CF1A882329F5F10110
:1038B0008486B586A686978680899189A289B389F0
:1038C0008F3FFFEF9F07FFEFAF07FFEFBF07C1F08D
:1038D0000197A109B109F101808B918BA28BB38B68
:1038E00081E082870DC021E030E040E050E00AC076
:1038F00020E030E0A90106C02FEF3FEFA90102C090
:10390000A7019601B901CA010F900F900F900F9077
:10391000CF91DF911F910F91FF90EF90DF90CF90AB
:10392000BF90AF909F908F907F906F905F904F90DF
:103930003F902F9008959F92AF92BF92CF92DF92C7
:10394000EF92FF920F931F93CF93DF93EC017A01D5
:103950008B01423051056105710508F454C08C8D0E
:103960009D8DAE8DBF8D481759076A077B07E8F11B
:103970004AC0CE01B801A7010E944F195B016C013A
:103980006115710581059105E1F181E0A816B10489
:10399000C104D104C1F12FEFA2162FEFB2062FEF11
:1039A000C2062FEFD20689F1CE01B801A70100E0CF
:1039B00010E098010E94CF1A882341F588899989DF
:1039C000AA89BB898F3F2FEF92072FEFA2072FEF16
:1039D000B20741F00196A11DB11D888B998BAA8B6E
:1039E000BB8B9A868601750102C0992493948C8DB5
:1039F0009D8DAE8DBF8DE816F9060A071B0708F4EA
:103A0000B8CF80E003C082E001C081E0DF91CF91B8
:103A10001F910F91FF90EF90DF90CF90BF90AF90EC
:103A20009F9008958F929F92AF92BF92CF92DF9214
:103A3000EF92FF920F931F93CF93DF93EC01B62E7B
:103A4000CA80DB800894C11CD11CC114D10409F4C4
:103A5000EEC08E859F85A889B9890097A105B1051B
:103A600009F4E5C01FE0812E912C8C209D2081144B
:103A7000910409F0CCC00196A11DB11D8E879F87CE
:103A8000A88BB98B2E813F81488559858C819D817A
:103A9000211531054105510541F4FC0180859185D1
:103AA000C816D90608F4B3C0C2C0FC01228130E0B8
:103AB00021503040A601F4E056954795FA95E1F77C
:103AC000242335232115310509F0A1C04A855B85E2
:103AD0006C857D850E944F197B018C0162307105D8
:103AE0008105910508F4A7C08FEFE8168FEFF8065F
:103AF0008FEF08078FEF180709F49FC08C819D8115
:103B0000FC01248D358D468D578DE216F306040792
:103B1000150708F46EC0BB2009F489C04A855B858F
:103B20006C857D850E94A71B7B018C016115710549
:103B30008105910509F47DC061307105810591050C
:103B400009F479C08FEFE8168FEFF8068FEF0807BA
:103B50008FEF180709F471C08C819D8140E050E01F
:103B6000BA010E94D618882309F067C08C819D8114
:103B7000C09660E070E040E052E00E94D213AC805A
:103B8000BD80C501B801A7010E94F613F50164A725
:103B900075A786A797A7BB24AA24A39419C0A482BB
:103BA0008C819D8140E050E0BA010E94D6188823A4
:103BB00009F043C0EC81FD8184A595A5A6A5B7A514
:103BC0000196A11DB11D84A795A7A6A7B7A7B39479
:103BD000EC81FD818281B81610F384A595A5A6A578
:103BE000B7A58B199109A109B10984A795A7A6A723
:103BF000B7A7EA86FB860C871D878C819D81B8015B
:103C0000A7010E94F6136E877F87888B998BDB82D2
:103C1000CA828C819D81C096E5E0880C991CEA954A
:103C2000E1F7880D991D9B8B8A8B80E007C084E0AB
:103C300005C087E003C082E001C081E0DF91CF9141
:103C40001F910F91FF90EF90DF90CF90BF90AF90BA
:103C50009F908F9008954F925F926F927F928F9274
:103C60009F92AF92BF92CF92DF92EF92FF920F930B
:103C70001F93DF93CF930F92CDB7DEB72C0160E097
:103C800070E00E94391AE82E882309F0D6C0D201CC
:103C90005496ED91FC915597D384B1E0DB22CC246E
:103CA000CA942FEF7DE0872E912C66246A94762C9F
:103CB000F2014685578560897189848195812983C0
:103CC0000E94D618E82E2981882309F0B6C0D201B7
:103CD00052960D911C915397F8014081442309F4A9
:103CE000AAC08385453E09F49AC04E3209F497C0B4
:103CF0008F7383FF04C08F3009F091C003C08F30F1
:103D000009F06CC0D20156968D919C9157970097FF
:103D100009F486C046FF0DC0F801C58412962D91A6
:103D20003C91139759963C932E935897242F2F7BB1
:103D300003C0421709F073C0D8011D963C911D972E
:103D4000C31609F06CC0DD2009F446C06C9170E028
:103D50006F7B707061507040689DA001699D500D2F
:103D6000789D500D112460E5E62E64E0F62EFA01F0
:103D7000EE0FFF1FE80FF91F4F3F51050CF04FC02A
:103D8000D7018D917D01D801A80FB11D1196BC906E
:103D90001197AA248C9190E08A299B2961917191B5
:103DA000DC01A156B040AA31B10508F48097DB01CF
:103DB000A156B040AA31B10510F460527040861788
:103DC000970769F5BDE5EB16B4E0FB0629F000970F
:103DD00019F04F5F5F4FD0CF215022C0222339F41A
:103DE000C80129830E9425142981C81621F0F201F7
:103DF000718E608E2FEFDD2019F0222389F41DC013
:103E0000D20154966D917C915597C8014BE050E0DA
:103E100029830E94DE132981009711F40EC02FEF31
:103E2000C20160E029830E94121DE82E29818823A7
:103E300009F43ECF02C004E0E02E8E2D0F90CF910A
:103E4000DF911F910F91FF90EF90DF90CF90BF9087
:103E5000AF909F908F907F906F905F904F9008955C
:103E60002F923F924F925F926F927F928F929F928A
:103E7000AF92BF92CF92DF92EF92FF920F931F9378
:103E8000DF93CF93CDB7DEB728970FB6F894DEBF98
:103E90000FBECDBF6C013B01DB018C918F3211F065
:103EA0008C3519F40894611C711CD6011496ED919F
:103EB000FC9115978081833029F484A195A1A6A156
:103EC000B7A103C080E090E0DC01F6018683978310
:103ED000A087B187D3018C91803248F4C60160E09D
:103EE00070E00E94391AF601138A128A96C12301E2
:103EF000D60156966D907C905797820143017301CD
:103F000018861F8220E030E0F80181918F0190E057
:103F100019010894211C311C8032910518F18F324F
:103F2000910521F18C35910509F1E0E4F4E021914E
:103F3000222329F030E028173907C9F76BC161E067
:103F400070E00E94AD0C009709F464C1F0E02F16F8
:103F5000F1E03F0609F45EC1D7018D939D937D0189
:103F60009101D2CF38872F8324E003C038872F8375
:103F700020E0EF81F885EE0FFF1FE60DF71D4F8162
:103F800058850AC0929182918032910519F08E3243
:103F9000910531F4415050404115510599F73AC10E
:103FA00058874F83FA01EE0FFF1FE60DF71D1182B0
:103FB0001082F601A488B588C50160E270E04BE08C
:103FC00050E02E830E94D21300E010E04F8158850C
:103FD000F4012E8102C00F5F1F4F819191918032B9
:103FE0009105C9F38E329105B1F358874F830115BE
:103FF000110509F02160EF81F885EE0FFF1FE60D36
:10400000F71D4F8158850CC04150504049F45887E6
:104010004F8358E0852E912CEE24FF2430E006C01B
:10402000929182918E32910579F7F1CFF801EE0FDE
:10403000FF1FE60DF71D80819181009709F47EC076
:104040000F5F1F4F8032910541F08E32910539F498
:104050004F8158850417150711F02160E7CFE81448
:10406000F9042CF4AF81B8850A171B07D9F4BBE01B
:104070008B16910411F4216061C0EF81F8850E1751
:104080001F0729F02160E017F1070CF457C0330F28
:10409000330F0F8118859BE0892E912C88E0E82E44
:1040A000F12CC4CF60E070E02E833D830E94AD0C04
:1040B0002E813D8180389105B0F020628F3F9105BF
:1040C00091F088F0A40141505040E416F5061CF030
:1040D00021607401ABCFF501EE0DFF1D90830894B4
:1040E000E11CF11C23C0E9E4F4E06F817885419183
:1040F000442351F050E048175907C9F778876F8378
:1041000021608FE590E012C078876F83AC01415445
:1041100050404A31510510F4326008C0AC0141569C
:1041200050404A31510510F431608097F501EE0D91
:10413000FF1D80830894E11CF11C78CFD5018C9180
:10414000853E11F4E5E0EC93F8E08F16910411F44C
:10415000330F330F822F8172B9F4432F50E0CA011D
:10416000837090708130910509F420614C7050701B
:104170004430510511F4286003C04C30510521F042
:104180008330910509F02260D5011B962C93C6015E
:104190000E942B1ED6015496ED91FC915597938564
:1041A0009470882329F08430C1F59923A9F135C092
:1041B000992399F5F60142895389DA011B968C916E
:1041C0001B9784FF29C0420C531C5596BC91BA839F
:1041D0001982FA01848990E029813A81822B932BFC
:1041E000A0E0B0E0DC0199278827338D3C831B8257
:1041F000228D30E04B815C81242B352B40E050E058
:10420000822B932BA42BB52BF60186839783A08753
:10421000B1876ECE86E001C085E028960FB6F8948F
:10422000DEBF0FBECDBFCF91DF911F910F91FF90E9
:10423000EF90DF90CF90BF90AF909F908F907F9046
:104240006F905F904F903F902F900895EF92FF9264
:104250000F931F93CF93DF93EC010A811B81688D2D
:10426000798D8FEF6F3F780709F4B801CE010E9476
:10427000391A882311F5B5EEEB2EFF24F3944E8501
:104280005F85688979898C819D810E94D6188823F1
:1042900089F4EA89FB89E082EC81FD81F4822A813C
:1042A0003B812017310748F4CE0160E00E94121DC7
:1042B000882329F3843009F482E0DF91CF911F91A4
:1042C0000F91FF90EF9008958F929F92AF92BF92BF
:1042D000CF92DF92EF92FF920F931F93DF93CF93D2
:1042E0000F92CDB7DEB75C010FEF1FEF24E03DE08A
:1042F000C32ED12C93C0D50114968D919C91159706
:104300000E94D618282F882309F097C0D50152960D
:10431000ED91FC9153973081332309F4A4C0838538
:10432000353E09F473C03E3209F470C08F7383FFC9
:1043300004C08F3009F06AC003C08F3009F057C045
:1043400036FF0DC00585D50112968D919C9113976E
:1043500059969C938E935897132F1F7B03C0311748
:1043600009F054C08585081709F050C0D50156964C
:104370006D917C915797208130E02F7B30702150D8
:1043800030402C9DC0012D9D900D3C9D900D112421
:1043900040E554E04C01880C991C860E971EDA010A
:1043A0002D91AD01DF01A20FB11D1196FC90119767
:1043B000EE242C9130E02E293F292115310561F0A2
:1043C0008F3F91051CF5D4012D933D934D0101962E
:1043D000B4E04D355B0719F7208126FF42C0FC0190
:1043E000EE0FFF1FE60FF71F118210823AC0112354
:1043F00039F4CF0129830E9425142981081711F16E
:104400008FEF9FEFF501918F808F1CC01FEFC501CB
:1044100060E00E94121D282F882379F4D5011E9692
:104420004D915D916D917C915197411551056105BB
:10443000710509F060CF222329F0F5011686178651
:10444000108A118A822F0F90CF91DF911F910F91C7
:10445000FF90EF90DF90CF90BF90AF909F908F90A4
:1044600008951150D4CF24E0E8CF0F931F93CF933A
:10447000DF93EC0140E050E0BA010E94D618982F7B
:10448000882309F074C08881833009F066C08A856A
:10449000882309F462C01CA61DA61EA61FA68E01B5
:1044A000005D1F4FC80160E070E040E052E00E94F4
:1044B000D213FE01E25DFD4F85E58083FE01E15DE3
:1044C000FD4F8AEA808382E588AB89AB81E68AABBF
:1044D00091E49BABFE01EC5EFD4F22E72083FE01E1
:1044E000EB5EFD4F2083FE01EA5EFD4F9083FE01EF
:1044F000E95EFD4F8083388929899A898B89FE017D
:10450000E85EFD4F3083FE01E75EFD4F2083FE0134
:10451000E65EFD4F9083FE01E55EFD4F80833C85A6
:104520002D859E858F85FE01E45EFD4F3083FE0163
:10453000E35EFD4F2083FE01E25EFD4F9083FE01AE
:10454000E15EFD4F80832C893D894E895F89898199
:10455000B80101E00E94750F1A86898160E040E091
:1045600050E00E94E50F91E0882309F490E0892F44
:10457000DF91CF911F910F910895AF92BF92CF928B
:10458000DF92EF92FF920F931F93DF93CF93CDB7FC
:10459000DEB728970FB6F894DEBF0FBECDBF6C0113
:1045A0007A0189014BE050E00E94C21306301105E8
:1045B000C8F0902F979599279795812F8695B92EBA
:1045C000B82A812F8795882787950695A82EA02A37
:1045D000F701019111917F010A0D1B1D80819181CD
:1045E000009739F7FE01399627E030E04AE0E42EE3
:1045F000F12CC801B7010E94CE60805D82932150EA
:1046000030408B0161157105A1F7FE01E20FF31F28
:104610008EE78183F60180E090E001C00196821769
:1046200093073CF0F601E80FF91FAE014F5F5F4FB3
:1046300004C04191403291F7F5CF283031053CF468
:10464000DA01A20FB31F6C912F5F3F4F01C060E2F0
:10465000619301968830910584F328960FB6F894FB
:10466000DEBF0FBECDBFCF91DF911F910F91FF90A5
:10467000EF90DF90CF90BF90AF9008956F927F92B0
:104680008F929F92AF92BF92CF92DF92EF92FF9262
:104690000F931F93DF93CF93CDB7DEB72D970FB650
:1046A000F894DEBF0FBECDBF8C01DC015496CD90D7
:1046B000DC9055975696BC9056975796AC904E0105
:1046C0000894811C911CC401B6014CE050E00E948A
:1046D000C2138C8580FF31C0F6011386D80157962E
:1046E0001C921E92569721E0E22EF12CC401982CC8
:1046F000892EC601692D782D4B2D5A2D97010E94C8
:10470000BD22C8010E942B1E282F882349F408943B
:10471000E11CF11CB4E6EB16F10459F727E014C1D3
:10472000843009F011C18C85F6018387D801569633
:10473000BC9256975796AC9257978C8581FD14C0C2
:104740009501832F9A2DFC0180E090E001C0019635
:104750002191319121153105D1F749966DE070E035
:104760000E94CE606B0103C091E0C92ED12CC8011C
:1047700060E070E00E94391A282F882309F0E4C015
:10478000AA24BB24EE24FF24F801468557856089BE
:104790007189848195810E94D618282F882309F079
:1047A000D3C0D8015296ED91FC9153978081853EFC
:1047B00011F0882369F4E114F10419F4F801A280DE
:1047C000B3800894E11CF11CEC14FD0419F4D2C070
:1047D000EE24FF24C80161E00E94121D282F8823C7
:1047E00099F2B2C0C801B5010E94391A282F882356
:1047F00009F0AAC0D80154968D919C9155970E94BA
:104800002514982E0894E108F1088FE0B82EBDE039
:10481000CB2ED12CAA24A394F80146855785608914
:104820007189848195810E94D618282F882309F0E8
:104830008BC0D80156964D915C9157975296ED9149
:10484000FC9153978E2C9586B3861486128E138E08
:104850008E2D90E001978C9D90018D9D300D9C9D3B
:10486000300D1124A0E56A2EA4E07A2E80E090E0BD
:10487000BFEF8F3F9B0751F0C901880F991F840F2D
:10488000951FDC018D919C912F5F3F4FD3016D915E
:104890003D01DF01A60FB11D8C9311969C931197DA
:1048A000009711F48FEF9FEFBDE56B16B4E07B0628
:1048B000F9F66FEF8F3F960751F0D901AA0FBB1F92
:1048C000A40FB51F8D919C911197009711F480E46E
:1048D000882A8082D8011496ED91FC911597A482C4
:1048E000C80160E00E94121D282F882369F50894F2
:1048F000E108F108E114F10409F08ECF40C0F8019D
:10490000E288F388C70160E070E040E250E02D8764
:104910000E94D213D80154966D917C915597C7018E
:104920004BE050E00E94C213D8015496ED91FC91E7
:10493000559783858871F70184871496ED91FC91D2
:10494000159781E084832D85822F2D960FB6F894DC
:10495000DEBF0FBECDBFCF91DF911F910F91FF90B2
:10496000EF90DF90CF90BF90AF909F908F907F900F
:104970006F900895F2E0EF16F10408F033CFD801FC
:104980001E964D915D916D917C91519714968D91EC
:104990009C9115970E94D618282F8823A9F6AFCF8F
:1049A000882391F4E0910B09F0910C09309709F0FC
:1049B00010826115710511F0FB01108270930C09D2
:1049C00060930B0980E008958BE008954F925F9209
:1049D0006F927F928F929F92AF92BF92DF92EF92EF
:1049E000FF920F931F93DF93CF93CDB7DEB7A897B6
:1049F0000FB6F894DEBF0FBECDBF7C0178A76FA3C2
:104A0000DC011D921C925FE1D52ED4228E01035F42
:104A10001F4F4E71CE018796BE016F5E7F4F0E9481
:104A20009814882309F028C1CE0101969AA389A37E
:104A30008BE097E09CA38BA36FA178A5C8010E948F
:104A4000301F2D2D30E0A9014C71507041155105DA
:104A500009F484C0882371F0843009F00DC1C801C5
:104A60000E943E23882309F007C1B8E0DB2A0F8D9E
:104A700018A15BC0D2FCFBC00F8D18A10115110558
:104A800009F4F9C0F8018385817109F0F4C0D3FEFF
:104A90004CC0958980E084889924882A992AAA2480
:104AA000BB24540199248824338D20E0828D90E02A
:104AB000822B932BA0E0B0E0882A992AAA2ABB2A4D
:104AC000148A158A128E138E148E158E168E178EDA
:104AD00089899A8921E0DC0114962C9314979C967D
:104AE0004D905D906D907C909F9781149104A104EE
:104AF000B10491F0B501A4010E949B1C882309F028
:104B0000BBC0E989FA89089481089108A108B10815
:104B100084869586A686B78689899A89B301A2017B
:104B20000E94D618882309F0A7C0D3FE28C0F80138
:104B300013860E943807D8011E966C931E971F9605
:104B40007C931F9750968C93509751969C93E9892C
:104B5000FA8981E08483B0E2DB2A11C0882309F05E
:104B60008BC00F8D18A10115110509F482C0F80141
:104B7000838584FD7EC0D1FE02C080FD7CC0698932
:104B80007A89DB019C962D913D914D915C919F9787
:104B9000F701228F338F448F558F8F8D98A1978F78
:104BA000868FD482D80155963C91559720E0549633
:104BB0008C9190E0822B932BA0E0B0E0DC01992750
:104BC0008827F801538D40E0228D30E0242B352BCF
:104BD00040E050E0822B932BA42BB52BF701868766
:104BE0009787A08BB18BD8015F968C9190E0A0E065
:104BF000B0E0B82FAA2799278827F801268D30E042
:104C000040E050E0A90133272227822B932BA42BCD
:104C1000B52B248D30E040E050E0822B932BA42B69
:104C2000B52B358D20E040E050E0822B932BA42B58
:104C3000B52BF70182879387A487B587D70116968E
:104C40001D921D921D921C9219978FEF15968C93B1
:104C5000168A178A108E118E71836083DB01169677
:104C60008D919C9117979383828380E005C088E0A3
:104C700003C084E001C087E0A8960FB6F894DEBFB9
:104C80000FBECDBFCF91DF911F910F91FF90EF909D
:104C9000DF90BF90AF909F908F907F906F905F90CC
:104CA0004F9008952F923F924F925F926F927F9212
:104CB0008F929F92AF92BF92DF92EF92FF920F93EB
:104CC0001F93CF93DF93EC01062FA72E7A011901D2
:104CD000F901118210826A817B81888199810E9409
:104CE0003514D82E882309F0E8C08C8187FDE0C0F8
:104CF00080FFE1C08A859B85AC85BD852E813F8183
:104D000048855985821B930BA40BB50B970140E096
:104D100050E082179307A407B50708F47C01802EA2
:104D20009A2CC1C02E813F8148855985DA01C9017D
:104D30009170A070B0700097A105B10509F06DC029
:104D4000888199817D81FC016281761718F1211596
:104D500031054105510529F46E857F85888999893A
:104D600006C04A895B896C897D890E944F1962302F
:104D7000710581059105F0F06F3FFFEF7F07FFEFB1
:104D80008F07FFEF9F0709F456C06A8B7B8B8C8BD4
:104D90009D8B1D82088119814A895B896C897D8977
:104DA000C8010E94F6139B01AC01611571058105D4
:104DB000910521F48C8180688C837AC08D81280FC5
:104DC000311D411D511D5701AB2CBB24A694A114CC
:104DD000B104E9F0F801628190E0F501E80FF91FF4
:104DE00070E06E177F0718F45B01A81AB90AF80182
:104DF0008181B4010A2D0E94240F8823E1F48D8162
:104E00008A0D8D838501102F0027110F32C02E8B44
:104E10003F8B488F598F8F5F8D834E805F80688472
:104E200079844E895F89688D798D888199810E9406
:104E3000D618882331F08C8180688C83DD24D3944C
:104E40003CC0C201917020E032E0281B390B870181
:104E50002E153F0508F4890168817981605D7F4FD7
:104E60008E819F819170680F791FC401A8010E94F3
:104E7000C213800E911E980140E050E08E819F8108
:104E8000A885B985820F931FA41FB51F8E839F83AA
:104E9000A887B987F10180819181800F911F91834B
:104EA0008083E01AF10AE114F10409F03BCF05C058
:104EB00072E0D72E02C067E0D62E8D2DDF91CF9104
:104EC0001F910F91FF90EF90DF90BF90AF909F9058
:104ED0008F907F906F905F904F903F902F900895AC
:104EE0002F923F924F925F926F927F928F929F92FA
:104EF000AF92BF92CF92DF92EF92FF920F931F93E8
:104F0000CF93DF93EC01E62EA72E6A011901F90178
:104F1000118210826A817B81888199810E94351477
:104F2000182F882309F048C18C8187FD42C181FF79
:104F300042C12A853B854C855D85C601A0E0B0E075
:104F4000820F931FA41FB51F82179307A407B507ED
:104F500010F4CC24DD244E2C5A2C12C12E813F811A
:104F600048855985DA01C9019170A070B070009729
:104F7000A105B10509F0BBC0888199817D81FC0143
:104F800062817617D8F12115310541055105A9F443
:104F90002E853F85488959892115310541055105DF
:104FA000D1F440E050E0BA010E94A71B9B01AC0184
:104FB0006E877F87888B998B08C04A895B896C894B
:104FC0007D890E94A71B9B01AC012115310541057C
:104FD000510509F4D9C02130310541055105A1F130
:104FE0002F3FFFEF3F07FFEF4F07FFEF5F0709F48A
:104FF0008CC02A8B3B8B4C8B5D8B1D82E881F981A9
:1050000064A575A586A597A52E893F89488D598DDC
:10501000621773078407950749F4CF0140E050E019
:10502000BA010E94D618882309F06FC0A880B98001
:105030004A895B896C897D89C5010E94F6136115D7
:1050400071058105910521F48C8180688C83B1C044
:105050003D813B014C01630E711C811C911C76014A
:10506000EF2CFF24E694E114F104F9F0F50122811C
:10507000832F90E0A701480F591F30E02417350710
:1050800018F47901E81AF90AF5018181B201A40145
:1050900093010E2D0E94750F8823B9F58D818E0D19
:1050A0008D83FE2CEE24FF0C51C02E813F8148855C
:1050B00059858A859B85AC85BD85281739074A07A0
:1050C0005B0770F0C50140E050E0BA010E94D618BD
:1050D0008823D9F4E881F98164A675A686A697A6E7
:1050E0006E8A7F8A888E998E8D818F5F8D836E8088
:1050F0007F80888499844E895F89688D798D8881C5
:1051000099810E94D618882329F08C8180688C832D
:1051100011E052C0C301917020E032E0281B390B2E
:1051200076012C153D0508F4790128813981205D2F
:105130003F4F8E819F819170820F931FB201A70113
:105140000E94C213E881F98131E034834E0C5F1C68
:10515000970140E050E08E819F81A885B985820F3C
:10516000931FA41FB51F8E839F83A887B987F10162
:10517000808191818E0D9F1D91838083CE18DF08E1
:10518000C114D10409F0EACE8E819F81A885B9852A
:105190002A853B854C855D85281739074A075B07BB
:1051A00020F48A879B87AC87BD878C8180628C8343
:1051B00003C012E001C017E0812FDF91CF911F9152
:1051C0000F91FF90EF90DF90CF90BF90AF909F90A6
:1051D0008F907F906F905F904F903F902F900895A9
:1051E0000F931F93CF93DF93EC016A817B818881BA
:1051F00099810E9435148823A9F59C8195FF32C0BE
:105200004A8D5B8D6C8D7D8D888199810E94D61829
:10521000882341F50E8D1F8DF80183858062838779
:105220008A85848F8B85858F8C85868F8D85878FEA
:105230008E85828F8F85838F8889848B8989858BE2
:105240000E943807F801668B778B808F918F8C8155
:105250008F7D8C83E881F98181E0848388819981C5
:105260000E943522DF91CF911F910F910895CF9326
:10527000DF93EC010E94F028882311F41982188230
:10528000DF91CF9108952F923F924F925F926F924C
:105290007F929F92AF92BF92CF92DF92EF92FF9256
:1052A0000F931F93DF93CF9300D000D0CDB7DEB71D
:1052B0009E838D837A018B01DC0112966D917C9126
:1052C00013978D919C910E943514982E882309F094
:1052D00094C1ED81FE81248127FD8DC18285938556
:1052E000A485B5858E159F05A007B10720F421FD83
:1052F00002C07C018D01ED81FE8186819781A085B0
:10530000B18516821782108611862FEF2583E1144E
:10531000F1040105110509F457C120803180F10124
:10532000A280BB24CC24DD2439E0AA0CBB1CCC1CFD
:10533000DD1C3A95D1F70097A105B105F1F12C01DB
:105340003D0108944108510861087108C801B7017E
:105350006150704080409040A60195010E94F56028
:1053600029833A834B835C83C301B201A601950173
:105370000E94F56089819A81AB81BC818217930775
:10538000A407B507D0F088279927DC018A199B0963
:10539000AC09BD0984219521A621B721ED81FE81AB
:1053A00086839783A087B187E81AF90A0A0B1B0B3B
:1053B000428953896489758936C0AD81BE811E9644
:1053C0004D915D916D917C9151974115510561050C
:1053D000710509F5C10140E050E0BA010E94A71B28
:1053E000AB01BC01413051056105710519F4ED8136
:1053F000FE815FC04F3FFFEF5F07FFEF6F07FFEFDB
:105400007F0719F4AD81BE8136C0ED81FE814687EC
:105410005787608B718BAD81BE8152964D935D93A2
:105420006D937C935597411551056105710509F4FC
:10543000CBC04D805E805BC0F20124818081918170
:1054400021FF0AC00E94A71BAB01BC0141155105F9
:105450006105710529F454C00E944F19AB01BC01CC
:105460004F3FFFEF5F07FFEF6F07FFEF7F0769F425
:105470005E824D82D20114968C91149780681496A6
:105480008C93149799249394B8C0423051056105C8
:10549000710560F0D201ED91FC91848D958DA68D02
:1054A000B78D481759076A077B0738F05E824D822F
:1054B000F2018481806884839EC0D20152964D930C
:1054C0005D936D937C93559716968D919D910D905C
:1054D000BC91A02D8A0D9B1DAC1DBD1DF2018683C4
:1054E0009783A087B187EA18FB080C091D09AE1441
:1054F000BF04C006D10608F49FCF5E824D8204C06F
:105500005E824D8286017501AD81BE811696AD9099
:10551000BD90CD90DC901997AE0CBF1CC01ED11E63
:10552000FD01A682B782C086D186D801C70129E0D5
:10553000B695A795979587952A95D1F7482E858397
:10554000D801C7019170A070B0700097A105B10596
:10555000D9F1808191810E94F61361157105810551
:10556000910551F4AD81BE8114968C911497806899
:1055700014968C9314973FC0640D711D811D911D6D
:105580004394ED81FE814582611571058105910588
:10559000D9F026893789408D518D621773078407AA
:1055A000950791F0A601950131704070507021155A
:1055B00031054105510541F0AD81BE8156966D938F
:1055C0007D938D939C935997ED81FE818681978180
:1055D000A085B185228533854485558528173907EF
:1055E0004A075B0750F482879387A487B587848135
:1055F0008062848302C012E0912E892D26960FB618
:10560000F894DEBF0FBECDBFCF91DF911F910F91F8
:10561000FF90EF90DF90CF90BF90AF909F907F90E2
:105620006F905F904F903F902F9008950F931F932E
:10563000DF93CF93CDB7DEB72E970FB6F894DEBFCA
:105640000FBECDBF8C017E876D87BC016C5F7F4F25
:10565000CE010D9640E00E949814882309F061C0A5
:10566000CE010196D80155969C938E9354978BE06A
:1056700097E057969C938E9356976D857E85C801CB
:105680000E94301F882309F049C0D8015296ED913D
:10569000FC9153973097D9F0838584FF33C03589C7
:1056A00020E0848990E0822B932BA0E0B0E0DC0125
:1056B00099278827538D40E0228D30E0242B352B0D
:1056C00040E050E0822B932BA42BB52B10C0D801C7
:1056D0001496ED91FC9115978081833029F484A173
:1056E00095A1A6A1B7A103C080E090E0DC01F8017C
:1056F00086839783A087B187C80160E070E00E942D
:10570000391A01C085E0D8011496ED91FC911597E6
:105710002681378111963C932E9303C0843009F47F
:1057200085E02E960FB6F894DEBF0FBECDBFCF91A9
:10573000DF911F910F910895DF92EF92FF920F93E7
:105740001F93DF93CF93CDB7DEB72C970FB6F894A6
:10575000DEBF0FBECDBF8C017B01FC01608171817A
:10576000848195810E943514D82E882389F59E0165
:105770002F5F3F4FF801358B248B2BE037E0378BC1
:10578000268BE114F10431F4C80160E070E00E945E
:10579000391A1DC0C8010E946421843031F4F80117
:1057A00016861786108A118A02C0882381F4C801E0
:1057B000B7010E94F817C80160E00E94121D8430F2
:1057C00031F4F80116861786108A118A01C0D82E86
:1057D0008D2D2C960FB6F894DEBF0FBECDBFCF91A6
:1057E000DF911F910F91FF90EF90DF900895DF926E
:1057F000EF92FF920F931F93DF93CF93CDB7DEB756
:10580000A8970FB6F894DEBF0FBECDBF98A78FA3A1
:105810007B018E01035F1F4FCE018796BE016F5E35
:105820007F4F40E00E949814D82E8823E1F4CE01E7
:1058300001969AA389A38BE097E09CA38BA36FA109
:1058400078A5C8010E94301FD82E882361F42F8DBF
:1058500038A12115310529F0C801B7010E94F817B8
:1058600002C056E0D52E8D2DA8960FB6F894DEBF57
:105870000FBECDBFCF91DF911F910F91FF90EF90A1
:10588000DF900895CF92DF92EF92FF920F931F93D4
:10589000CF93DF93EC016A817B81888199810E949B
:1058A0003514182F882309F061C06C8167FD5BC037
:1058B00061FF5BC02E813F81488559858A859B8524
:1058C000AC85BD85281739074A075B0708F04EC02D
:1058D0002A873B874C875D8760626C8388819981CA
:1058E000211531054105510561F44E855F856889B3
:1058F00079890E949B1C182F1E861F86188A198A78
:105900002CC04A895B896C897D890E944F196B0183
:105910007C018FEFC8168FEFD8068FEFE8068FEF68
:10592000F80671F1E1E0CE16D104E104F10461F56D
:1059300029C04A895B896C897D890FEF1FEF2FEFA2
:105940003FE00E94CF1A182F882349F4888199815B
:10595000B701A6010E949B1C182F112339F08C81DE
:1059600080688C8303C012E001C017E0812FDF91B3
:10597000CF911F910F91FF90EF90DF90CF900895FE
:1059800011E0EDCF12E0EBCF88819981FC01248DED
:10599000358D468D578DC216D306E406F50630F7D1
:1059A000C8CF2F923F924F925F926F927F928F92C9
:1059B0009F92AF92BF92CF92DF92EF92FF920F939E
:1059C0001F93DF93CF93CDB7DEB72A970FB6F89426
:1059D000DEBF0FBECDBF9A83898378876F834A016C
:1059E000CE010196BA0140E00E949814282E882327
:1059F00009F0D6C0D401ED91FC9180899189A289EA
:105A0000B389248D358D468D578D2B833C834D83F3
:105A10005E832250304040405040281739074A07E3
:105A20005B0738F0EF81F88580839183A283B3838D
:105A3000B7C03080232D213049F532E0E32EF12C20
:105A4000012D112DAA24BB246501D4018D919C91B7
:105A5000B801A7010E944F196115710529F4089436
:105A6000A11CB11CC11CD11C0894E11CF11C011D1E
:105A7000111DD401ED91FC91848D958DA68DB78D6E
:105A8000E816F9060A071B0700F376C040A051A0EC
:105A900062A073A0E0E0F0E010E0AA24BB2465015E
:105AA000112399F4F40180819181B301A2010E9434
:105AB000D618882309F073C00894411C511C611C3E
:105AC000711CD401ED91FC91F09671816081B32D30
:105AD000B23089F4F72EEE24262F30E02E293F290C
