:100000000C9435060C9454060C9454060C94540627
:100010000C9454060C9454060C9454060C945406F8
:100020000C9454060C9454060C9454060C945406E8
:100030000C9454060C9454060C9454060C945406D8
:100040000C9454060C94BA0D0C9454060C9454065B
:100050000C9454060C94B71B0C9454060C94540640
:100060000C9454060C9454060C9454060C945406A8
:100070000C9454060C94F71B0C9454060C945406E0
:100080000C9454060C9454060C9454060C94540688
:100090000C9454060C9454060C9454060C94540678
:1000A0000C9454060C9454060C9454060C94540668
:1000B0000C9454060C9454060C9454060C94540658
:1000C0000C9454060C9454060C9454060C94540648
:1000D0000C9454060C9454060C9454060C94540638
:1000E0000C9454060000000000000000005F0000B7
:1000F000000003000300227F22227F2200242A6BBB
:100100002A12002313086462003A45453A28000089
:100110000002010000003E4100000000413E0000DE
:10012000002A1C1C2A000008083E08080000804025
:10013000000000080808080000000040000000203F
:1001400010080402003E5149453E0000427F400035
:1001500000625151514E00214145453B0018161196
:100160007F10002745454539003E49494932000185
:100170006111090700364949493600264949493E77
:1001800000000012000000002012000000081422ED
:100190004100001414141414004122140800000635
:1001A000015109060000000000000000005F00008F
:1001B000000003000300227F22227F2200242A6BFA
:1001C0002A12002313086462003A45453A280000C9
:1001D0000002010000003E4100000000413E00001E
:1001E000002A1C1C2A000008083E08080000804065
:1001F000000000080808080000000040000000207F
:1002000010080402003E5149453E0000427F400074
:1002100000625151514E00214145453B00181611D5
:100220007F10002745454539003E494949320001C4
:100230006111090700364949493600264949493EB6
:10024000000000120000000020120000000814222C
:100250004100001414141414004122140800000674
:1002600001510906003E414D4D2E007816111678B9
:10027000007F49494936003E41414122007F4141CA
:10028000413E007F49494941007F09090901003E7B
:1002900041415132007F0808087F0000417F410042
:1002A00000304041413F007F08081463007F404018
:1002B0004060007F0418047F007F0408107F003E28
:1002C0004141413E007F09090906003E4161215E2E
:1002D000007F090919660026494949320001017F5A
:1002E0000101003F4040403F000718601807001F11
:1002F0006018601F0063140814630003047804038B
:1003000000615149454300007F410000000204089C
:1003100010200000417F000000000000000040406D
:100320004040404000000001020000205454547836
:10033000007E48484830003844444428003048484B
:10034000487E00385454541800107C120204000CEB
:1003500052523C02007E0808087000000074000041
:10036000004080807400007E1010106C0000027E3F
:100370000000007C04780478007C040404780038D1
:100380004444443800FC242424180018242424FC69
:10039000007C0804040800485454542000083E48D7
:1003A0004000003C4040403C001C2040201C003CE1
:1003B0004030403C004428102844001C20A0A07C71
:1003C000004464544C440008364100000000007FA3
:1003D0000000000041360800020101020201007F16
:1003E0007F7F7F7F0000000000000000005F0000B2
:1003F000000003000300227F22227F2200242A6BB8
:100400002A12002313086462003A45453A28000086
:100410000002010000003E4100000000413E0000DB
:10042000002A1C1C2A000008083E08080000804022
:10043000000000080808080000000040000000203C
:1004400010080402003E5149453E0000427F400032
:1004500000625151514E00214145453B0018161193
:100460007F10002745454539003E49494932000182
:100470006111090700364949493600264949493E74
:1004800000000012000000002012000000081422EA
:100490004100001414141414004122140800000632
:1004A00001510906003E414D4D2E00781611167877
:1004B000007F49494936003E41414122007F414188
:1004C000413E007F49494941007F09090901003E39
:1004D00041415132007F0808087F0000417F410000
:1004E00000304041413F007F08081463007F4040D6
:1004F0004060007F0418047F007F0408107F003EE6
:100500004141413E007F09090906003E4161215EEB
:10051000007F090919660026494949320001017F17
:100520000101003F4040403F000718601807001FCE
:100530006018601F00631408146300030478040348
:1005400000615149454300007F410000000204085A
:1005500010200000417F000000000000000040402B
:1005600040404040007816111678002054545478CA
:10057000007F4949493600384444442800304848FF
:10058000487E007F4949494100107C120204000C5A
:1005900052523C02007E08080870000000740000FF
:1005A000007F08081463007F080814630000027EBF
:1005B0000000007C04780478007C0404047800388F
:1005C0004444443800FC242424180018242424FC27
:1005D000007C0804040800485454542000083E4895
:1005E0004000003C4040403C001C2040201C003C9F
:1005F0004030403C004428102844001C20A0A07C2F
:10060000004464544C440008364100000000007F60
:100610000000000041360800020101020201007FD3
:100620007F7F7F7F002054545478002054545478A6
:10063000007E48484830003844444428000C525258
:100640003C02000C52523C0200107C120204000CCE
:1006500052523C02007E080808700000007400003E
:10066000004080807400007E1010106C0000027E3C
:1006700000000038444444380038444444380038CA
:100680004444443800FC2424241800FC2424241866
:10069000007C0804040800485454542000083E48D4
:1006A0004000003C4040403C001C2040201C003CDE
:1006B0004030403C004428102844001C20A0A07C6E
:1006C000004464544C440008364100000000007FA0
:1006D0000000000041360800020101020201007F13
:1006E0007F7F7F7F0000000000000000000000000E
:1006F0000000000000183C3C3C18180018180000CE
:100700000066666624000000000000000000000093
:10071000006C6CFE6C6C6CFE6C6C00000018187C3D
:10072000C6C2C07C0686C67C18180000000000C245
:10073000C60C183066C60000000000386C6C3876B5
:10074000DCCCCC7600000018181830000000000047
:10075000000000000000000C183030303030180C61
:10076000000000000030180C0C0C0C0C18300000BD
:100770000000000000663CFF3C6600000000000036
:1007800000000018187E181800000000000000008B
:1007900000000000001818183000000000000000E1
:1007A00000FE00000000000000000000000000004B
:1007B00000001818000000000002060C183060C08D
:1007C00080000000000000386CC6C6D6C6C66C3873
:1007D000000000000018387818181818187E00005B
:1007E0000000007CC6060C183060C6FE0000000049
:1007F000007CC606063C0606C67C00000000000C15
:100800001C3C6CCCFE0C0C1E0000000000FEC0C0A6
:10081000C0FC0606C67C00000000003860C0C0FCBA
:10082000C6C6C67C0000000000FEC6060C183030AC
:10083000303000000000007CC6C6C67CC6C6C67C40
:1008400000000000007CC6C6C67E06060C780000CC
:100850000000000018180000001818000000000038
:100860000000181800000018183000000000000CEC
:10087000183060C06030180C00000000000000005C
:100880007E00007E000000000000006030180C06B2
:100890000C18306000000000007CC6C60C18180060
:1008A000181800000000007CC6C6DEDEDEDCC07C5E
:1008B000000000000010386CC6C6FEC6C6C60000A8
:1008C000000000FC6666667C666666FC0000000050
:1008D000003C66C2C0C0C0C2663C0000000000F818
:1008E0006C66666666666CF80000000000FE666274
:1008F0006878686266FE0000000000FE6662687844
:10090000686060F000000000003C66C2C0C0DEC647
:10091000663A0000000000C6C6C6C6FEC6C6C6C609
:1009200000000000003C181818181818183C0000A7
:100930000000001E0C0C0C0C0CCCCC78000000004D
:1009400000E6666C6C786C6C66E60000000000F0F7
:1009500060606060606266FE0000000000C6EEFE3F
:10096000D6C6C6C6C6C60000000000C6E6F6FEDE55
:10097000CEC6C6C600000000007CC6C6C6C6C6C637
:10098000C67C0000000000FC6666667C606060F06B
:1009900000000000007CC6C6C6C6C6D6DE7C0E00BF
:1009A000000000FC6666667C6C6666E6000000007F
:1009B000007CC6C660380CC6C67C00000000007E05
:1009C0007E5A18181818183C0000000000C6C6C649
:1009D000C6C6C6C6C67C0000000000C6C6C6C6C6DF
:1009E000C66C38100000000000C6C6C6C6D6D6FECB
:1009F0006C6C0000000000C6C6C67C387CC6C6C64B
:100A00000000000000666666663C1818183C00008E
:100A1000000000FEC68C183060C2C6FE0000000058
:100A2000003C303030303030303C0000000000807E
:100A3000C0E070381C0E060200000000003C0C0CE8
:100A40000C0C0C0C0C3C000010386CC600000000B4
:100A50000000000000000000000000000000000096
:100A6000000000FF0030180C000000000000000033
:100A70000000000000000000780C7CCCCC76000068
:100A8000000000E06060786C6666667C0000000034
:100A9000000000007CC6C0C0C67C00000000001C36
:100AA0000C0C3C6CCCCCCC760000000000000000AC
:100AB0007CC6FEC0C67C00000000001C3632307CC4
:100AC00030303078000000000000000076CCCCCC44
:100AD0007C0CCC78000000E060606C76666666E6B0
:100AE000000000000018180038181818183C000002
:100AF0000000000606000E0606060666663C0000BC
:100B000000E06060666C786C66E60000000000380B
:100B1000181818181818183C0000000000000000F1
:100B2000ECFED6D6D6D60000000000000000DC6641
:100B30006666666600000000000000007CC6C6C64F
:100B4000C67C0000000000000000DC6666667C6079
:100B500060F000000000000076CCCCCC7C0C0C1EB9
:100B6000000000000000DC76666060F0000000001D
:100B7000000000007CC6701CC67C00000000001055
:100B80003030FC303030361C000000000000000027
:100B9000CCCCCCCCCC760000000000000000C6C657
:100BA000C66C38100000000000000000C6C6D6D693
:100BB000FE6C0000000000000000C66C38386CC6F7
:100BC0000000000000000000C6C6C6C67E060C7805
:100BD000000000000000FECC183066FE000000009F
:100BE000000E181818701818180E000000000018D1
:100BF0001818181818181818000000000070181895
:100C0000180E1818187000000076DC0000000000B4
:100C1000000000000000000000000010386CC6C694
:100C2000FE000000FDFDFDFDEF00EE041B04FEFED6
:100C3000FEFEEF904A047F3FEE044306EF900983E7
:100C400008000BAF0A00050006000700EF00EE0CDD
:100C5000EF900080EFB04902EF007F01E181E202F6
:100C6000E276E1838001EF90000011241FBECFEFF8
:100C7000D1E2DEBFCDBF00E00CBF12E0A0E0B2E0E9
:100C8000E2EEF4E402C005900D92A03FB107D9F75F
:100C900016E0A0EFB2E001C01D92A639B107E1F75E
:100CA0000E94351D0C9470220C9400008EBD0DB472
:100CB00007FEFDCF8EB50895DF93CF930F92CDB78A
:100CC000DEB72C98962F9F71892B69830E94560658
:100CD000698167FF03C08FEF0E9456068FEF0E9465
:100CE00056062C9A0F90CF91DF910895DF93CF9302
:100CF0000F92CDB7DEB72C986F71862B49830E9477
:100D000056064981842F0E9456062C9A0F90CF9147
:100D1000DF9108952C988FEF0E9456062C9A10921E
:100D2000F00287EB9BE00197F1F700C00000089507
:100D30001F93282F30E02F7130702B313105A4F430
:100D4000182F1295169513708091F002181761F004
:100D500080EA6FE143E00E94760680E86FE1412F70
:100D60000E9476061093F0021F910895DF93CF93AF
:100D70000F92CDB7DEB7682F69830E94980680E096
:100D800069810E945C060F90CF91DF9108951F93B7
:100D9000DF93CF930F92CDB7DEB7182F69830E94F0
:100DA000980680E4612F49810E9476060F90CF91CA
:100DB000DF911F9108951F93DF93CF930F920F92AE
:100DC000CDB7DEB7182F69837A830E94980680E436
:100DD000612F49810E947606612F6F5F80E47A81DE
:100DE000472F0E9476060F900F90CF91DF911F91B1
:100DF00008951F93DF93CF930F92CDB7DEB7182FCF
:100E000069830E94980680EA612F49810E947606D4
:100E10000F90CF91DF911F9108951F93DF93CF9390
:100E20000F92CDB7DEB7182F69830E94980680E82D
:100E3000612F49810E9476060F90CF91DF911F911B
:100E400008950F931F93CF93DF93EC018B012C98A0
:100E50008AE30E94560606C08FEF0E9456068993C9
:100E60000150104001151105B9F72C9ADF91CF916F
:100E70001F910F9108950F931F93CF93DF93EC0170
:100E80008B012C988AE70E94560605C089910E9422
:100E900056060150104001151105C1F72C9ADF913B
:100EA000CF911F910F910895CF93DF93982FEB016E
:100EB00084ED692F0E94C70686EDBE010E94DB0605
:100EC0008AEE0E94B60680FDFBCFDF91CF91089598
:100ED000CF93DF93EC0184B1866184B923982C9A77
:100EE00080E58CBD8DB581608DBD0E948A0688E04D
:100EF00060E070E00E94DB068CE060E070E00E9441
:100F0000DB068AE06FEF79E10E94DB061092F202C5
:100F10001092F10280EC6DE00E94C70681EC60E067
:100F20000E94C70682EC63E30E94C7068AEC60E079
:100F300072E00E94DB0684EC65E10E94C70686EC45
:100F400062E10E94C70687EC6CE00E94C70684EE4F
:100F500068810E94C70685EE69810E94C70682EEFD
:100F60006A810E94C70683EE6B810E94C70680EEED
:100F70006C810E94C70681EE6D810E94C70680E0E9
:100F800060E071E00E94540780E160E071E00E943F
:100F9000540784E166E774E00E9454078FE164E03F
:100FA0000E940D07DF91CF9108950F931F93CF9368
:100FB000DF938C01EB010DC08CE10E94B60681FF2E
:100FC00008C08FE160E80E940D078FE160E80E9491
:100FD000F9068FE10E94B60683FDEECF82E060E065
:100FE0007AE10E94DB0680E092E061E070E00E941E
:100FF0003B07C801BE010E943B0784E060E07AE144
:101000000E94DB06BE016050764E86E00E94DB0641
:101010008FE168E00E940D07DF91CF911F910F9142
:101020000895EF92FF920F931F93DF93CF9300D019
:101030000F92CDB7DEB77C01162F072F89E30E94F0
:10104000B6068823E9F12091F1023091F20280E0A6
:10105000B9010E94DB0681EF92E062E070E00E943D
:101060002107CE01019662E070E00E942107CE01C7
:10107000039662E070E00E9421078B8187FF0FC01A
:1010800089819A8104979801032F122F8017910765
:1010900008F48C01C701B8010E94210702C000E0DA
:1010A00010E06091F1027091F202615070407F7126
:1010B0008CE00E94DB068EE160E40E940D0702C016
:1010C00000E010E0C8010F900F900F900F90CF91AB
:1010D000DF911F910F91FF90EF9008956830710597
:1010E00050F0FC0166A177A1762767277627685024
:1010F00070400E94071C0895EF92FF920F931F9378
:10110000CF93DF93EA01A901D901FE010EC0F0805F
:10111000EE24018110E00E291F2920E030E0600F4D
:10112000711F821F931F32961297A230B10578F774
:10113000FA01EE7FEC0FFD1F40FF0BC0308120E075
:1011400040E050E002C080709070620F731F841FF7
:10115000951F9C014427552721153105410551054F
:1011600091F7362F272F20953095C901DF91CF9128
:101170001F910F91FF90EF900895209137053091C6
:1011800038054091390550913A0526173707480729
:101190005907E1F020914105309142054091430506
:1011A00050914405261737074807590789F02091C1
:1011B0004B0530914C0540914D0550914E05261739
:1011C000370748075907A1F422E003C020E001C017
:1011D00021E0822F90E09C01220F331F43E0880F13
:1011E000991F4A95E1F7280F391F255C3A4F02C035
:1011F00020E030E0C9010895DC011696ECEDF2E044
:1012000026E001900D922150E1F7625F7F4F0E942E
:10121000D5070895AF92BF92CF92DF92EF92FF92DF
:101220000F931F93CF93DF936B017C010E94BD0846
:101230005C01009709F046C007E313E0E8012E9631
:10124000C8016FEF70E046E050E00E94581F88E050
:1012500096E0909344038093430380E091E0909361
:1012600046038093450328E030E03B832A8326E051
:101270002C8324E02D839F838E83D8015696ECED3A
:10128000F2E086E001900D928150E1F78091E20258
:101290009091E302A091E402B091E5028E879F87CE
:1012A000A88BB98B87E593E026E0DC011D922A9597
:1012B000E9F7C88ED98EEA8EFB8E80976CE170E0DC
:1012C0000E94FC08C501DF91CF911F910F91FF9003
:1012D000EF90DF90CF90BF90AF900895AF92BF9204
:1012E000CF92DF92EF92FF920F931F93CF93DF93F2
:1012F0006C015B01EC012E96E888F9880A891B894C
:101300008091E2029091E302A091E402B091E502A3
:101310008E259F25A027B1272091E6023091E70274
:101320004091E8025091E90282239323A423B5233C
:101330000097A105B10541F0E090EA02F090EB02C0
:101340000091EC021091ED02C801B7010E940A0958
:101350000097D1F185010C5E1F4FD601FC0186E09C
:1013600001900D928150E1F788E090E0F6019587B9
:10137000848785E486871982902F812F9B838A83B7
:101380001D821C821F821E8280E488871B861A862B
:101390008091E2029091E302A091E402B091E50213
:1013A0008C879D87AE87BF8760E070E0CB01AE0180
:1013B00024E130E00E947C089B878A87C601B8013F
:1013C0000E94FC0881E001C080E0DF91CF911F9175
:1013D0000F91FF90EF90DF90CF90BF90AF90089566
:1013E000EF92FF920F931F93CF93DF93EC01FC01D9
:1013F0003E968C010E5D1F4FA8E0EA2EF12CE60E02
:10140000F71E81E181878091E2029091E302A09131
:10141000E402B091E50284879587A687B7879E2D61
:101420008F2DF8019583848317821682675E7F4F24
:1014300080E090E0AE01465E5F4F9701285F3F4F2E
:101440000E947C08F80197838683CE01B7010E9431
:101450006E09DF91CF911F910F91FF90EF9008954A
:10146000DC01FC01369626E001900D922150E1F757
:10147000DC011696ECEDF2E026E001900D92215091
:10148000E1F7625F7F4F0E94D5070895EF92FF92C8
:101490000F931F93CF93DF93EC016C31710508F428
:1014A0009FC0FC013E968E859F8521E0803092078B
:1014B00009F096C0828193818830910509F090C02F
:1014C000208D318D428D538D8091E2029091E30207
:1014D000A091E402B091E502281739074A075B079B
:1014E00009F07EC086819781A1E080309A0731F0B3
:1014F000B2E080309B0709F073C039C080E092E011
:1015000097838683CE018096AE014A5E5F4F26E0C8
:10151000DA010D90AD01DC010D92CD012150C1F732
:10152000CF0108964CED52E026E0DA010D90AD01B6
:10153000DC010D92CD012150C1F786859785A089E8
:10154000B189808F918FA28FB38F8091E2029091A9
:10155000E302A091E402B091E50286879787A08B11
:10156000B18BCE016CE170E00E94300A39C0E68494
:10157000F78400891189C801B7010E94BD0800974E
:1015800079F520913603822F90E0FC01EE0FFF1FCA
:1015900033E0880F991F3A95E1F7E80FF91FE95CEE
:1015A000FA4FE082F18202831383822F90E0FC01E4
:1015B000EE0FFF1FB3E0880F991FBA95E1F7E80F10
:1015C000F91FE55CFA4F669686E00990019281501A
:1015D000E1F72F5F20933603233011F41092360386
:1015E000DF91CF911F910F91FF90EF900895EF92AF
:1015F000FF920F931F93CF93DF937C018B01EC013C
:101600002E960C5E1F4F902F812F9B838A831D8205
:101610001C821F821E8280E488871B861A868C8526
:101620009D85AE85BF85888B998BAA8BBB8B80915E
:10163000E2029091E302A091E402B091E5028C876E
:101640009D87AE87BF8760E070E0CB01AE0124E1EB
:1016500030E00E947C089B878A87C701B8010E94FE
:10166000300ADF91CF911F910F91FF90EF90089575
:101670006830710590F0FC01B296DC0192962C91D5
:101680009297283051F492961C9222813381285FE0
:101690003F4F338322830E94F70A0895FC01DC0147
:1016A0001E968685853459F550966D917D918D9164
:1016B0009C9153972091E2023091E3024091E40221
:1016C0005091E5026217730784079507C1F41296DB
:1016D0006D917C9113977627672776276451704028
:1016E00019968C911997813019F0813141F404C019
:1016F000CF010E94380B0895CF010E946E08089513
:101700006E30710598F0FC0124853585283031054F
:1017100049F0F6E028303F0749F46E5070400E94CF
:10172000460A08956E5070400E944E0B08958CED4D
:1017300092E00E946807089504C087E393E00E9446
:10174000800B87E393E060E072E00E941108BC0127
:10175000009799F70895CF93DF93E7E3F3E09F01B4
:10176000265D3F4F668F778F80A391A380E09BE734
:1017700095A384A388E39CE690935A03809359032E
:1017800080E3E90119928A95E9F788E08093610383
:10179000CF0160E370E00E94F009DF91CF910895DE
:1017A000AF92BF92CF92DF92EF92FF920F931F936F
:1017B0006033710590F1FC0180A591A5A2A5B3A5A8
:1017C000582F442733272227EB2EFF2400271127E9
:1017D0002E293F29402B512BE92EFA2E0B2F1127B2
:1017E000A12C7FEFB72EC12CD12CEA20FB200C219D
:1017F0001D212E293F29402B512BBA2FA92F982F7D
:10180000882780709070B070282B392B4A2B5B2B67
:1018100020583E474A4A534803C020E030E0A9011F
:10182000B901CA011F910F91FF90EF90DF90CF9007
:10183000BF90AF900895E0912103F0912203808141
:10184000882319F48FEF9FEF0CC0E0912103F091F2
:1018500022030580F681E02D0680F781E02D82814C
:1018600093819093EF028093EE020895CF92DF92DE
:10187000EF92FF920F931F93DF93CF930F92CDB709
:10188000DEB78091F902882309F0A3C08091F602A7
:101890009091F70201969093F7028093F6020091DF
:1018A000F6021091F70201151105B9F48091210398
:1018B0009091220320911F03309120033093220343
:1018C000209321039093200380931F038091F802BB
:1018D0008F5F8093F8020E941B0C8091EE02909122
:1018E000EF020817190708F45FC040E001C041E0AB
:1018F000E0912103F09122038081882319F48FEF76
:101900009FEF11C0E0912103F09122030580F68141
:10191000E02DC680D780D60112968D919C911397A9
:101920000817190728F49093EF028093EE023DC048
:1019300082E0E82EF12CEC0CFD1CC70149830E94CB
:10194000E00DF601848995894981009729F0C60147
:101950000C960E94E00D4981D60156968C915697BF
:101960009091FA02981710F48093FA0290E09C018B
:10197000B3E0220F331FBA95E1F7280F391FC901D1
:1019800085509D4FB70149830E94BD0DE091F30240
:10199000F091F402D60156969C915697868949811A
:1019A000981708F0A4CFA4CF40E0E091F302F091A3
:1019B000F402868990E0FC01A3E0EE0FFF1FAA95D8
:1019C000E1F7E80FF91FE550FD4F8081823040F4C8
:1019D00008C0809123038F5F8093230340E001C000
:1019E00041E08091F502811141E0842F0F90CF9169
:1019F000DF911F910F91FF90EF90DF90CF900895AE
:101A00008091F902882321F081E08093F502089506
:101A10001092F50205C08091FA0281508093FA027B
:101A20008091FA0290E0FC0173E0EE0FFF1F7A95BF
:101A3000E1F7E80FF91FE550FD4F8081882359F346
:101A40008091FA0290E09C0163E0220F331F6A95B7
:101A5000E1F7280F391FF901E550FD4FA181B2814F
:101A600012960D90BC91A02DB283A18322503D4FC0
:101A7000A217B30731F412962D913C91139732833C
:101A80002183FC0153E0EE0FFF1F5A95E1F7E80FA9
:101A9000F91FE550FD4F0180F281E02D868197818D
:101AA0009093F4028093F30208950F920FB6F89486
:101AB0000F920BB60F920CB60F921F9211242F9219
:101AC0003F924F925F926F927F928F929F92AF92CE
:101AD000BF92CF92DF92EF92FF920F931F932F93BB
:101AE0003F934F935F936F937F938F939F93AF93A6
:101AF000BF93CF93DF93EF93FF93A091F302B09145
:101B0000F4020DB60D920EB60D920E94360C88238B
:101B100011F00E94000DA091F302B091F402CD915A
:101B2000CDBFDD91DEBFFF91EF91DF91CF91BF91EE
:101B3000AF919F918F917F916F915F914F913F9165
:101B40002F911F910F91FF90EF90DF90CF90BF905A
:101B5000AF909F908F907F906F905F904F903F904D
:101B60002F901F900F900CBE0F900BBE0F900FBECA
:101B70000F9008950E94550D1895CF93DF939C0107
:101B8000DB01FC01C181D2811396DC93CE931297C5
:101B90008C819D8115969C938E9314978C819D8149
:101BA000FC01738362837D836C8319963C932E932F
:101BB0001897F90180818F5F8083DF91CF9108951D
:101BC000CF93DF93FC01A085B1858281938124812D
:101BD0003581EC013D832C83C481D5819B838A832D
:101BE00011968D919C9112978E179F0721F4129652
:101BF000DC93CE931197118610868C9181508C9333
:101C0000DF91CF9108950E94431308951F93182FD9
:101C1000843010F486E001C087E028980E944D13BC
:101C2000812F8295880F880F807C0E944D13182F7A
:101C30008FEF0E944D13289A512F5F7040E0282F9C
:101C400030E0242B352BC9011F910895EF92FF92AC
:101C50000F931F93162FE42EF22E1092C00028E04F
:101C60002093C1000130B1F0013030F0023011F1A9
:101C7000033009F050C037C09C0140E050E060EBF9
:101C800071E78BE090E00E94361F215030404040C9
:101C9000504022C09C0140E050E060E673EE86E1D7
:101CA00090E00E94361F21503040404050408091CB
:101CB000C20029C09C0140E050E060E673EE86E17E
:101CC00090E00E94361F21503040404050408091AB
:101CD000C00082608093C0008091C2008093C200E7
:101CE0008091C20015C09C0140E050E060E87DE8B2
:101CF0008BE590E00E94361F21503040404050401C
:101D00008091C20080688093C2008091C20080648C
:101D10008093C20003C020E030E0A9012093C400FA
:101D2000232F342F452F552747FD5A952093C50063
:101D30008F2D823041F0833079F0FF2091F4809133
:101D4000C2008F7C0CC08091C20080628093C20070
:101D50008091C2008F7E03C08091C2008063809317
:101D6000C2008E2D813019F0823051F404C0809170
:101D7000C200877F03C08091C20088608093C20048
:101D80001730F1F0183028F4153041F0163099F57D
:101D90000EC0183011F1193071F523C08091C100C7
:101DA0008B7F8093C1008091C200897F22C0809187
:101DB000C1008B7F8093C1008091C200826008C007
:101DC0008091C1008B7F8093C1008091C2008460AC
:101DD0008093C2008091C2000CC08091C1008B7FB3
:101DE00003C08091C10084608093C1008091C200D3
:101DF00086608093C2008091C2008E7F8093C20073
:101E00001F910F91FF90EF900895EF92FF920F9323
:101E10001F93162FE42EF22E1092C80028E0209374
:101E2000C9000130B1F0013030F0023011F103305F
:101E300009F050C037C09C0140E050E060EB71E712
:101E40008BE090E00E94361F2150304040405040CF
:101E500022C09C0140E050E060E673EE86E190E035
:101E60000E94361F21503040404050408091CA00AF
:101E700029C09C0140E050E060E673EE86E190E00E
:101E80000E94361F21503040404050408091C80091
:101E900082608093C8008091CA008093CA008091BC
:101EA000CA0015C09C0140E050E060E87DE88BE589
:101EB00090E00E94361F21503040404050408091B9
:101EC000CA0080688093CA008091CA0080648093B1
:101ED000CA0003C020E030E0A9012093CC00232FEA
:101EE000342F452F552747FD5A952093CD008F2D30
:101EF000823041F0833079F0FF2091F48091CA0064
:101F00008F7C0CC08091CA0080628093CA0080914F
:101F1000CA008F7E03C08091CA0080638093CA008C
:101F20008E2D813019F0823051F404C08091CA00A6
:101F3000877F03C08091CA0088608093CA001730F1
:101F4000F1F0183028F4153041F0163099F50EC034
:101F5000183011F1193071F523C08091C9008B7FC1
:101F60008093C9008091CA00897F22C08091C900F6
:101F70008B7F8093C9008091CA00826008C08091E5
:101F8000C9008B7F8093C9008091CA0084608093D0
:101F9000CA008091CA000CC08091C9008B7F03C029
:101FA0008091C90084608093C9008091CA008660D6
:101FB0008093CA008091CA008E7F8093CA001F91CF
:101FC0000F91FF90EF900895EF92FF920F931F9360
:101FD000162FE42EF22E1092D00028E02093D1008C
:101FE0000130B1F0013030F0023011F1033009F06E
:101FF00050C037C09C0140E050E060EB71E78BE0DF
:1020000090E00E94361F215030404040504022C096
:102010009C0140E050E060E673EE86E190E00E94B3
:10202000361F21503040404050408091D20029C09E
:102030009C0140E050E060E673EE86E190E00E9493
:10204000361F21503040404050408091D000826087
:102050008093D0008091D2008093D2008091D200F2
:1020600015C09C0140E050E060E87DE88BE590E021
:102070000E94361F21503040404050408091D20095
:1020800080688093D2008091D20080648093D200D7
:1020900003C020E030E0A9012093D400232F342F87
:1020A000452F552747FD5A952093D5008F2D823017
:1020B00041F0833079F0FF2091F48091D2008F7C41
:1020C0000CC08091D20080628093D2008091D200B7
:1020D0008F7E03C08091D20080638093D2008E2DCA
:1020E000813019F0823051F404C08091D200877F92
:1020F00003C08091D20088608093D2001730F1F045
:10210000183028F4153041F0163099F50EC018300B
:1021100011F1193071F523C08091D1008B7F80932C
:10212000D1008091D200897F22C08091D1008B7F25
:102130008093D1008091D200826008C08091D1004C
:102140008B7F8093D1008091D20084608093D200F5
:102150008091D2000CC08091D1008B7F03C0809110
:10216000D10084608093D1008091D20086608093FA
:10217000D2008091D2008E7F8093D2001F910F9168
:10218000FF90EF900895EF92FF920F931F93162FF9
:10219000E42EF22E1092300128E02093310101301C
:1021A000B1F0013030F0023011F1033009F050C0CD
:1021B00037C09C0140E050E060EB71E78BE090E0BD
:1021C0000E94361F215030404040504022C09C01A8
:1021D00040E050E060E673EE86E190E00E94361F3A
:1021E00021503040404050408091320129C09C0134
:1021F00040E050E060E673EE86E190E00E94361F1A
:1022000021503040404050408091300182608093A6
:10221000300180913201809332018091320115C0EA
:102220009C0140E050E060E87DE88BE590E00E9492
:10223000361F21503040404050408091320180682C
:10224000809332018091320180648093320103C017
:1022500020E030E0A90120933401232F342F452FB3
:10226000552747FD5A95209335018F2D823041F037
:10227000833079F0FF2091F4809132018F7C0CC083
:1022800080913201806280933201809132018F7E91
:1022900003C0809132018063809332018E2D8130A2
:1022A00019F0823051F404C080913201877F03C05D
:1022B000809132018860809332011730F1F018303C
:1022C00028F4153041F0163099F50EC0183011F190
:1022D000193071F523C0809131018B7F80933101DA
:1022E00080913201897F22C0809131018B7F809360
:1022F000310180913201826008C0809131018B7F71
:102300008093310180913201846080933201809109
:1023100032010CC0809131018B7F03C0809131016B
:102320008460809331018091320186608093320114
:10233000809132018E7F809332011F910F91FF9027
:10234000EF9008958093C6008091C00085FFFCCF78
:1023500008958093CE008091C80085FFFCCF08953A
:102360008093D6008091D00085FFFCCF08958093A4
:1023700036018091300185FFFCCF0895EF92FF92E6
:10238000CF93DF93813069F0813028F0823079F08B
:102390008330C9F412C0E62EE7017E01F72EE70173
:1023A0001AC0E62EE7017E01F72EE7011BC0E62EDC
:1023B000E7017E01F72EE7011CC0E62EE7017E0152
:1023C000F72EE7011DC0E62EE7017E01F72EE7019B
:1023D0001EC00E94A211BE0189918823D1F7E1CFCE
:1023E0000E94A911BE0189918823D1F7E0CF0E94F4
:1023F000B011BE0189918823D1F7DFCF0E94B711B8
:10240000BE0189918823D1F7DECF0E94A211899164
:102410008823D9F7DF91CF91FF90EF900895129A1A
:1024200092B1977892B922B190E08F70907033E0BA
:10243000880F991F3A95E1F7282B22B90000000078
:102440000000000012980895129A82B1877882B92C
:10245000000000000000000080B11298869586956B
:1024600086958F7008951F93119A81B1877881B9ED
:102470000E942412182F0E942412119891B198677B
:1024800091B91295107F182B812F80781F91089594
:102490001F93182F0E9433128823E1F7812F829512
:1024A0008F700E940F12812F0E940F121F910895AA
:1024B0001F93182F0E9433128823E1F7109A812F5F
:1024C00082958F700E940F12812F0E940F12109818
:1024D0001F91089581B18F6781B983E00E940F1227
:1024E00087E99AE30197F1F700C0000083E00E94BA
:1024F0000F128FED91E00197F1F700C0000083E02B
:102500000E940F128FED91E00197F1F700C00000DB
:1025100082E00E940F120895EF92FF92CF93DF9313
:10252000E82EE7017E01F92EE70102C00E94581251
:1025300089918823D9F7DF91CF91FF90EF9008958B
:1025400081B1877881B9119A109882E08A95F1F764
:10255000129A92E09A95F1F780B1869586958695C4
:102560008295807F92E09A95F1F7129894E09A957F
:10257000F1F7129A92E09A95F1F790B192E09A955C
:10258000F1F7129894E09A95F1F787FDE1CF119851
:1025900081B1886781B90895982F92959F708F7047
:1025A000662311F4109801C0109A22E02A95F1F7E1
:1025B000129A22B1990F990F990F2778922B92B9FD
:1025C00094E09A95F1F7129824E02A95F1F7129A7F
:1025D00092B1880F880F880F9778892B82B984E091
:1025E0008A95F1F7129894E09A95F1F70E94A0125B
:1025F0000895DF93CF930F92CDB7DEB72FE339E184
:1026000041E0215030404040E1F700C0000091B16E
:10261000986791B90A9A089A099A92B1977892B9EB
:1026200012981198109800C000C0129A149A34E0C1
:102630003A95F1F7129844E04A95F1F789830E94A0
:10264000A01289818C6060E00E94CC1288E260E078
:102650000E94CC120F90CF91DF910895883230F410
:1026600061118064806860E00E94CC12089582E06D
:102670008093B80083E08093B900ECEBF0E08081B8
:1026800084608083089584B1876084B9289A209AF1
:10269000289A8CB581658CBD08958EBD0DB407FE5A
:1026A000FDCF8EB5089584B1866084B923980895CE
:1026B0008CB580648CBD08952C9A0895FF920F9379
:1026C0001F93DF93CF930F92CDB7DEB7162F042F52
:1026D000F22E89830E9453131CBC1DBC90E89DBD43
:1026E0008981882319F0813061F407C08CB580613D
:1026F0008CBD249A0E945C1304C08CB58F7E8CBD67
:102700002498113051F0113028F0123061F013305C
:1027100099F40FC08CB5837F0EC08CB5877F8CBDBC
:102720008CB5846008C08CB58B7F8CBD8CB58860FF
:1027300002C08CB58C608CBD0330C9F0043028F425
:10274000013079F0023080F409C00530C9F005305D
:1027500088F00630F1F0073059F524C08DB58E7F32
:102760000BC08DB58E7F0EC08DB58E7F14C08DB51C
:102770008E7F1AC08DB581608DBD8CB58C7F17C0E2
:102780008DB581608DBD8CB58D7F8CBD8CB5816024
:102790000EC08DB581608DBD8CB58E7F8CBD8CB526
:1027A000826005C08DB581608DBD8CB583608CBDA8
:1027B000FF2021F08F2D813039F403C08CB58F7D3F
:1027C00002C08CB580628CBD0E9458130F90CF91CF
:1027D000DF911F910F91FF9008952F9A2D988EBD34
:1027E0000DB407FEFDCF2D9A08951F93182F892F42
:1027F0000E94ED13812F0E94ED131F91089580E92F
:102800009FEE0E94F51380E098EE0E94F513089564
:102810002F982D988EBD0DB407FEFDCF2D9A0895EB
:102820001F93182F892F0E940814812F0E940814CB
:102830001F910895CF93DF93279A269A259A2F9A6E
:102840002E9A2D9A2E988FE295E70197F1F700C006
:1028500000002E9AC0E0D0E0FE01EC5DF34F8491C1
:102860000E94ED132196C831D105B1F787E092E5BA
:102870000197F1F700C00000C0E0D0E0FE01E45C89
:10288000F34F84910E94ED132196CE32D105B1F71A
:10289000DF91CF9108951F93182F80E99FEE0E943A
:1028A000F513812F90E08170907080569C4F26E048
:1028B000880F991F2A95E1F70E94F5131F9108953B
:1028C00080E99FEE0E94F5138FE098EE0E94F513C9
:1028D00008951F93182F80E99FEE0E94F513812F12
:1028E00090E0805C9E4F880F991F880F991F0E946F
:1028F000F5131F9108950F931F93DF93CF9300D08B
:10290000CDB7DEB7182F802F2B8349836A830E94AF
:102910006914812F90E08050964F0E94F5134981F1
:10292000842F90E08050954F0E94F5136A81862F86
:1029300090E08050984F0E94F5132B81822F90E0F9
:102940008050974F0E94F5130F900F900F90CF91EA
:10295000DF911F910F910895AF92BF92CF92DF92B6
:10296000EF92FF920F931F93DF93CF930F92CDB708
:10297000DEB7F82EE62E122FD32E902F842F6F2D38
:102980002E2D01E099830E947B149981983019F0D3
:10299000903129F512C00E94FF1300E0CE2CDD24F7
:1029A000CF18D10804C0812F0E9408140F5F802F18
:1029B00090E0C816D906BCF712C00E94601400E06F
:1029C000AE2CBB24AF18B10805C0812F9D2D0E94ED
:1029D00010140F5F802F90E0A816B906B4F70F907F
:1029E000CF91DF911F910F91FF90EF90DF90CF90EB
:1029F000BF90AF900895AF92BF92CF92DF92EF92C7
:102A0000FF920F931F93DF93CF930F92CDB7DEB753
:102A1000F82EE62E542F122FD32E902F642F4E2DEA
:102A2000252F00E099830E947B149981983019F03A
:102A3000903129F512C00E94FF1300E0CE2CDD2456
:102A4000CF18D10804C0812F0E9408140F5F802F77
:102A500090E0C816D906BCF712C00E94601400E0CE
:102A6000AE2CBB24AF18B10805C0812F9D2D0E944C
:102A700010140F5F802F90E0A816B906B4F70F90DE
:102A8000CF91DF911F910F91FF90EF90DF90CF904A
:102A9000BF90AF900895BF92CF92DF92EF92FF92D6
:102AA0000F931F93CF93DF93D82EF62EB42EC22E02
:102AB000E801642F4F2D98010E2D0E94FB148D2DDF
:102AC0006B2D4C2D9E010E94FB148F2D6C2D4D2DD6
:102AD0009E010E94AC148F2D6C2D4B2D9E010E94E7
:102AE000AC14DF91CF911F910F91FF90EF90DF9089
:102AF000CF90BF900895AF92BF92CF92DF92EF92A6
:102B0000FF920F931F93DF93CF930F920F92CDB746
:102B1000DEB7D82EC42EE22E80E89FEE0A836983AA
:102B20000E94F5132A81822F90E08050984E0E94D7
:102B3000F5132A816981233009F464C0243060F4DC
:102B4000213071F1062F10E0FF24AD2CBB24DD24D1
:102B5000223008F040C00DC0253009F47BC025307C
:102B600008F46BC0263009F490C0273009F0A9C0E2
:102B70008CC0C80180509E4E0E94F513C801815040
:102B80009B4E8E0D9F1D0E94F513C50180509D4EDA
:102B90000E94F513C50181509A4E8C0D9D1D8FC06A
:102BA000062F10E0C80180509E4E0E94F5130F5F63
:102BB0001A4EC8018E1991090E94F5130D2D10E0CF
:102BC000C80180509D4E0E94F513C80181509A4E55
:102BD0008C0D911D74C0C80180509E4E0E94F5134B
:102BE000C80181509B4E8E0D9F1D0E94F513C5019B
:102BF00080509D4E0E94F513C5018F5F994E8C1930
:102C00009D095DC0062F10E0C80180509E4E0E94B5
:102C1000F5130F5F1A4EC8018E1991090E94F51322
:102C20000D2D10E0C80180509D4E0E94F513C80183
:102C30008F5F994E8C19910942C0062F10E0C80190
:102C400080509E4E0E94F51301501B4EC8018C0D02
:102C5000911D0CC0062F10E0C80180509E4E0E94AE
:102C6000F5130F5F1A4EC8018C1991090E94F513D4
:102C70000D2D10E0C80180509D4E0E94F513C80133
:102C800081509A4E8E0D911D1AC0062F10E0C8017A
:102C900080509E4E0E94F5130F5F1A4EC8018C198A
:102CA00091090E94F5130D2D10E0C80180509D4E32
:102CB0000E94F513C8018F5F994E8E1991090E94E9
:102CC000F5130F900F90CF91DF911F910F91FF900F
:102CD000EF90DF90CF90BF90AF90089580E89FEE87
:102CE0000E94F51380E098E10E94F51380E092E1E4
:102CF0000E94F51380E095E10E94F51380E093E1D6
:102D00000E94F51380E096E10E94F5130895AF92BA
:102D1000BF92CF92DF92EF92FF920F931F93DF93B8
:102D2000CF930F920F92CDB7DEB7D82EC42EE22EDE
:102D300080E89FEE0A8369830E94F5132A81822F1F
:102D400090E08050984E0E94F5132A8169812330CB
:102D500009F464C0243060F4213071F1062F10E0D2
:102D6000FF24AD2CBB24DD24223008F040C00DC070
:102D7000253009F47BC0253008F46BC0263009F4F7
:102D800090C0273009F0A9C08CC0C80180509E4E69
:102D90000E94F513C80181509B4E8E0D9F1D0E940D
:102DA000F513C50180509D4E0E94F513C501815059
:102DB0009A4E8C0D9D1D8FC0062F10E0C8018050CB
:102DC0009E4E0E94F51301501B4EC8018E0D911DA1
:102DD0000E94F5130D2D10E0C80180509D4E0E94F9
:102DE000F513C80181509A4E8C0D911D74C0C80115
:102DF00080509E4E0E94F513C80181509B4E8E0D4F
:102E00009F1D0E94F513C50180509D4E0E94F51331
:102E1000C5018F5F994E8C199D095DC0062F10E08A
:102E2000C80180509E4E0E94F5130F5F1A4EC801D4
:102E30008E1991090E94F5130D2D10E0C8018050E4
:102E40009D4E0E94F513C8018F5F994E8C19910910
:102E500042C0062F10E0C80180509E4E0E94F5131C
:102E600001501B4EC8018C0D911D0CC0062F10E0A7
:102E7000C80180509E4E0E94F5130F5F1A4EC80184
:102E80008C1991090E94F5130D2D10E0C801805096
:102E90009D4E0E94F513C80181509A4E8E0D911DD2
:102EA0001AC0062F10E0C80180509E4E0E94F513F4
:102EB0000F5F1A4EC8018C1991090E94F5130D2D50
:102EC00010E0C80180509D4E0E94F513C8018F5F2D
:102ED000994E8E1991090E94F5130F900F90CF9182
:102EE000DF911F910F91FF90EF90DF90CF90BF90F7
:102EF000AF9008959F92AF92BF92CF92DF92EF92E0
:102F0000FF920F931F93CF93DF93F42EB22EA32E35
:102F1000D02E0C2D4EE028E00E947B152E2D28305F
:102F200021F0203109F04FC025C00E94FF130EE0B0
:102F30008F2D809F80011124E801C05CD140025B8D
:102F40001140FE01EC51F94FC49098E0E92E80E861
:102F5000F82E8F2D8C2111F08B2D01C08D2D0E940C
:102F60000814EA9411F0F694F4CF2196C017D10713
:102F700041F729C00E9460148EE02F2D289FC001C8
:102F80001124EC01C05CD140BEE4EB2EBEEFFB2E61
:102F9000E80EF91EFE01EC51F94F9490A8E0CA2EFC
:102FA00000E8802F892119F08B2D9A2D02C08D2DDC
:102FB000912F0E941014CA9411F00695F2CF219619
:102FC000CE15DF0539F70E94FF130E946E16DF91C0
:102FD000CF911F910F91FF90EF90DF90CF90BF9016
:102FE000AF909F9008956F927F928F929F92AF9231
:102FF000BF92CF92DF92EF92FF920F931F93CF93E6
:10300000DF93A42E3901F02E0C2D043010F40C5F48
:1030100001C0045046E028E00E947B1586E09A2D0E
:10302000989FE00111248E2D883021F0803109F025
:103030003DC012C00E94FF138E010A5F1F4F09C0DE
:103040008F2D0E940814EA94D9F72196C017D10752
:1030500069F138E0E32EF4CF0E94601426E0822E5E
:10306000912C8C0E9D1E1AC0C5010C2C02C095958A
:1030700087950A94E2F780FF02C0C30102C08F2D3A
:10308000912F0E9410140894C11CD11C98E0C916FD
:10309000D10451F72196C815D90541F0CC24DD247F
:1030A000FE01EC51FF4FA490BB24DECF0E94FF1322
:1030B0000E946E16DF91CF911F910F91FF90EF90BC
:1030C000DF90CF90BF90AF909F908F907F906F9048
:1030D00008956F927F928F929F92AF92BF92CF92FC
:1030E000DF92EF92FF920F931F93CF93DF93B82E4F
:1030F000F62E4A013901E801DE2C8C2D8330C1F017
:10310000843028F48130C1F08230A0F417C08530BB
:1031100059F0853058F0863029F0873009F0A6C084
:10312000AA249EC0AA2489C0AA2474C0AA245FC06D
:10313000AA244AC0AA2435C0AA2420C0AA240BC0AD
:103140008B2D6F2D93018E01ED2CCC240E94F31753
:10315000A39486E0F80EF401EA0DF11D40814423AA
:1031600079F784C08B2D6F2D93018E01ED2CCC242B
:10317000C3940E94F317A3948AEFF80EF401EA0DAA
:10318000F11D4081442371F771C08B2D6F2D930188
:103190008E01ED2CB2E0CB2E0E94F317A39486E0B3
:1031A000F80EF401EA0DF11D4081442371F75EC071
:1031B0008B2D6F2D93018E01ED2CA3E0CA2E0E9462
:1031C000F317A3948AEFF80EF401EA0DF11D408184
:1031D000442371F74BC08B2D6F2D93018E01ED2C85
:1031E000F4E0CF2E0E94F317A39486E0B80EF4010A
:1031F000EA0DF11D4081442371F738C08B2D6F2DEE
:1032000093018E01ED2CE5E0CE2E0E94F317A394DE
:1032100086E0B80EF401EA0DF11D4081442371F7F8
:1032200025C08B2D6F2D93018E01ED2C76E0C72EDE
:103230000E94F317A3948AEFB80EF401EA0DF11D72
:103240004081442371F712C08B2D6F2D93018E01A5
:10325000ED2C57E0C52E0E94F317A3948AEFB80E09
:10326000F401EA0DF11D4081442371F70E946E16AE
:10327000DF91CF911F910F91FF90EF90DF90CF9052
:10328000BF90AF909F908F907F906F9008956F92B6
:103290007F928F929F92AF92BF92CF92DF92EF92E6
:1032A000FF920F931F93CF93DF93B82EF62E4A0110
:1032B0003901E801DE2C8C2D8330C1F0843028F4F4
:1032C0008130C1F08230A0F417C0853059F08530CC
:1032D00058F0863029F0873009F0A6C0AA249EC095
:1032E000AA2489C0AA2474C0AA245FC0AA244AC000
:1032F000AA2435C0AA2420C0AA240BC08B2D6F2D70
:1033000093018E01ED2CCC240E947A17A39488E0BF
:10331000F80EF401EA0DF11D4081442379F784C0D1
:103320008B2D6F2D93018E01ED2CCC24C3940E9424
:103330007A17A39488EFF80EF401EA0DF11D40818D
:10334000442371F771C08B2D6F2D93018E01ED2CED
:10335000A2E0CA2E0E947A17A39488E0F80EF40126
:10336000EA0DF11D4081442371F75EC08B2D6F2D56
:1033700093018E01ED2CF3E0CF2E0E947A17A394D7
:1033800088EFF80EF401EA0DF11D4081442371F736
:103390004BC08B2D6F2D93018E01ED2CE4E0CE2ED2
:1033A0000E947A17A39488E0B80EF401EA0DF11D8B
:1033B0004081442371F738C08B2D6F2D93018E010E
:1033C000ED2C75E0C72E0E947A17A39488E0B80E02
:1033D000F401EA0DF11D4081442371F725C08B2DC6
:1033E0006F2D93018E01ED2C56E0C52E0E947A17A9
:1033F000A39488EFB80EF401EA0DF11D4081442337
:1034000071F712C08B2D6F2D93018E01ED2C97E07B
:10341000C92E0E947A17A39488EFB80EF401EA0D22
:10342000F11D4081442371F70E946E16DF91CF9108
:103430001F910F91FF90EF90DF90CF90BF90AF90D2
:103440009F908F907F906F900895AF92BF92CF9290
:10345000DF92EF92FF920F931F93F82EA62ED42E99
:10346000C22EB02E01E00E947B148E2D883019F000
:103470008031F1F40EC00E94FF1307C08B2D0E9413
:1034800008141F5FD116D0F7A394CA1488F01F2D1B
:10349000F9CF0E94601408C08B2D912F0E94101448
:1034A000E394DE14C8F7A394CA1410F0EF2CF9CFFC
:1034B0000E94FF131F910F91FF90EF90DF90CF902C
:1034C000BF90AF9008952F923F924F925F926F926C
:1034D0007F928F929F92AF92BF92CF92DF92EF92A4
:1034E000FF920F931F93DF93CF93CDB7DEB72C9747
:1034F0000FB6F894DEBF0FBECDBF582EB62E442EA9
:10350000922E1B870A873701160180910202909143
:103510000302A0910402B091050289839A83AB83D0
:10352000BC83842F825064E60E94031F252D2F5FE9
:103530002987FAA0F89EF02C1124F20EE42EE50C57
:103540000BA110E0CE2CCA94980124563040829FE3
:10355000E02D1124EC0D24E630E0201B310B492F27
:1035600050E0249FC001259F900D349F900D1124A1
:103570006CE97FEF0E94231FE60F842D90E098876F
:103580008F83850D911D9E838D838E2F90E02D81DD
:103590003E81821793070CF4CE2EC801BE016F5FE7
:1035A0007F4F4AE050E00E945F1F882009F05EC014
:1035B000D92CDB0C852D6B2D4E2D2D2D0A851B85D1
:1035C000EA2C0E944B155B2C5394DA9408C0852D8D
:1035D0006D2D4F2D93010A2D0E94AC14F394CF143E
:1035E000B0F7392D3031F8F08D819E819595879512
:1035F000982F292D30E0225F3F4F35952795FB2CE2
:10360000F20E88506F2DAE014F5F5F4F9101830125
:10361000EA2CA5E0CA2E9C870E9447199C85892F19
:10362000805F6F2D61C0892D883008F487C08D813F
:103630009E8195958795982F292D30E0285F3F4FE3
:1036400035952795FB2CF20E86506F2DAE014F5FFE
:103650005F4F91018301EA2C75E0C72E9C870E9481
:1036600069189C85892F845F6F2D64C0982D9130D7
:1036700009F064C0D92CD50C242D2B0D852D6B2D74
:103680004D2D0A851B85EA2C0E944B15DA9408C043
:1036900089856D2D4F2D93010A2D0E94FB14F39403
:1036A000CF14B0F7292D203120F1892D90E00E970D
:1036B00095958795982E6F8178856B0D711D759501
:1036C00067956850892D850DAE014F5F5F4F910161
:1036D0008301EA2CCC240E9447196D817E81759567
:1036E0006795605F892D8B0D45E291010E947A17E5
:1036F00025C0392D383010F1892D90E00897959527
:103700008795982E6F8178856B0D711D75956795DE
:103710006650850DAE014F5F5F4F91018301EA2C2A
:10372000CC240E9469186D817E8175956795645FD0
:10373000892D8B0D45E291010E94F3172C960FB64F
:10374000F894DEBF0FBECDBFCF91DF911F910F91D7
:10375000FF90EF90DF90CF90BF90AF909F908F90B1
:103760007F906F905F904F903F902F9008951F92A1
:103770000F920FB60F9211242F938F939F93AF93B5
:10378000BF93809134039091350301969093350354
:1037900080933403809134039091350323E0883E75
:1037A0009207D9F48091280390912903A0912A03CC
:1037B000B0912B030196A11DB11D80932803909316
:1037C0002903A0932A03B0932B0310923503109280
:1037D000340384B392E0892784BBBF91AF919F915A
:1037E0008F912F910F900FBE0F901F9018951F92E1
:1037F0000F920FB60F9211248F93809179008093CE
:1038000020068F910F900FBE0F901F901895FC010E
:1038100024A135A1FCE628333F0781F58A960E9452
:10382000D00B611571058105910541F120912803A7
:103830003091290340912A0350912B03621B730B93
:10384000840B950B609330037093310380933203A4
:10385000909333038091280390912903A0912A0328
:10386000B0912B0380549745AF4FBF4F80932C03EB
:1038700090932D03A0932E03B0932F0308959F924E
:10388000AF92BF92CF92DF92EF92FF920F931F936E
:10389000DF93CF93CDB7DEB7E2970FB6F894DEBFD4
:1038A0000FBECDBF17B88FEF88B91AB88BB99DB1CD
:1038B00098619DB9999A84B92FEF3EE944E221506D
:1038C00030404040E1F700C0000015B814BA1EB8FF
:1038D0008FEF9EE9A4E281509040A040E1F700C044
:1038E00000008EB198E089278EB98EB190E18927CA
:1038F0008EB984B392E0892784BB2FEF3EE944E27E
:10390000215030404040E1F700C0000014BA1EB81A
:103910008DB188618DB9999A989A94BD83E085BDDF
:103920008BEB87BD80916E00826080936E007894EF
:1039300080E091EE68E041E020E000E00E94260E89
:1039400080E30E94A21180E895E268E041E020E077
:103950000E94050F81E30E94A21180E895E268E0D1
:1039600041E020E00E94E40F82E30E94A21180E87F
:1039700095E268E041E020E00E94C31083E30E94EA
:10398000A21182E00E94F91284E30E94A2110E9417
:10399000371385E30E94A2110E94030E86E30E9462
:1039A000A21180E090E066E072E00E94BE1100E0AB
:1039B00010E02EE2922E95E0C92ED12CCC0EDD1E09
:1039C0007E010894E11CF11C88E0A82E82E0B82E4C
:1039D000802F0E94060E19821A821B821C82D60139
:1039E000E92D1D92EA95E9F72DB73EB728503040F2
:1039F0000FB6F8943EBF0FBE2DBFEDB7FEB73196A0
:103A0000ADB7BEB71296FC92EE921197B382A28226
:103A100095838483178306830E94801FEDB7FEB7CA
:103A200038960FB6F894FEBF0FBEEDBF80E090E071
:103A3000B7010E94BE110F5F1F4F0830110541F6FC
:103A400087E30E94A211E2960FB6F894DEBF0FBE84
:103A5000CDBFCF91DF911F910F91FF90EF90DF903D
:103A6000CF90BF90AF909F9008952F923F924F922A
:103A70005F926F927F928F929F92AF92BF92CF92FE
:103A8000DF92EF92FF920F931F93DF93CF93CDB707
:103A9000DEB764970FB6F894DEBF0FBECDBF8FEFD1
:103AA0009EE9A4E281509040A040E1F700C00000F0
:103AB0000E943F1C0E946A128EE00E94481281E020
:103AC0000E94481287E292E00E948C1280E060E03F
:103AD00040E020E00E945E1381E00E94481288E3EB
:103AE00092E00E948C120E941A1481E00E944812F7
:103AF00089E492E00E948C1280E00E944B1481E0E5
:103B00000E9448128AE592E00E948C1280E060E0F8
:103B10004FEA23E80FEF1FEF38E0E32E0E94251A4B
:103B200081E00E9448128BE692E00E948C128EE1A6
:103B30006EE14EE028E000E00E94871681E00E94DE
:103B400048128CE792E00E948C1288E262E34DE812
:103B500052E024ED31E90FEF1FEF90E1E92ECC2484
:103B60000E94471981E00E94481282E992E00E9477
:103B70008C120E94970B81E00E94481283EA92E027
:103B80000E948C1280E090E064EB72E00E94BE1113
:103B900090E00F920F92892F8150ADB7BEB711966A
:103BA0008C93119712969C938AE06AE040E72CE090
:103BB00000E010E0B0EEEB2EB7E0FB2ECC24DD24CD
:103BC000A0E1AA2E882483949A8B0E94631AEFE2C4
:103BD000F5E73197F1F700C000009A899F5F0F90D9
:103BE0000F909536B1F6FCE36F2E712C812C912C41
:103BF000E0E12E2EEEE03E2E412C512CCE0105961A
:103C00009C8B8B8B5E010894A11CB11C0E949C0BA9
:103C1000209128033091290340912A0350912B03CE
:103C200080912C0390912D03A0912E03B0912F032E
:103C3000281739074A075B0738F162E571EC85E719
:103C40009AE50E94AB0B882361F480912803909140
:103C50002903A0912A03B0912B030296A11DB11D47
:103C60000BC08091280390912903A0912A03B09161
:103C70002B03CC96A11DB11D80932C0390932D0393
:103C8000A0932E03B0932F038091300390913103C2
:103C9000A0913203B09133030097A105B10509F457
:103CA000B5CF209128033091290340912A035091E8
:103CB0002B038091240390912503A0912603B091BA
:103CC0002703281739074A075B0708F49FCF80911D
:103CD000280390912903A0912A03B0912B03019608
:103CE000A11DB11D8093240390932503A093260367
:103CF000B0932703E0903003F0903103009132033A
:103D0000109133038091280390912903A0912A03F5
:103D1000B0912B03E80EF91E0A1F1B1F80E29CE1E5
:103D2000A0E0B0E0E80EF91E0A1F1B1FE092280673
:103D3000F092290600932A0610932B06C801B701BA
:103D4000A40193010E94361FC62E60932E06CA015D
:103D5000B901A40193010E94361FD62E60939506E7
:103D6000C801B701A20191010E94361FCA01B90121
:103D700028E130E040E050E00E94361F60932F06BB
:103D800019821A821B821C82AB89BC89EDE01D92CC
:103D9000EA95E9F78DB79EB70A970FB6F8949EBFDC
:103DA0000FBE8DBFEDB7FEB73196ADB7BEB7129659
:103DB000BC92AE92119786EC92E0938382836483E7
:103DC0001582D6821782C08611860E94801FADB7E9
:103DD000BEB71A960FB6F894BEBF0FBEADBF80E057
:103DE00060E00E942E13C5010E948C1288E262E3FB
:103DF000A50124ED31E90FEF1FEF70E1E72ECC2490
:103E00000E94471903CF991B79E004C0991F9617A8
:103E100008F0961B881F7A95C9F780950895AA1B0C
:103E2000BB1B51E107C0AA1FBB1FA617B70710F0A5
:103E3000A61BB70B881F991F5A95A9F780959095D7
:103E4000BC01CD01089597FB092E07260AD077FD06
:103E500004D0E5DF06D000201AF4709561957F4FFD
:103E60000895F6F7909581959F4F0895A1E21A2E37
:103E7000AA1BBB1BFD010DC0AA1FBB1FEE1FFF1F0E
:103E8000A217B307E407F50720F0A21BB30BE40B5E
:103E9000F50B661F771F881F991F1A9469F76095A5
:103EA0007095809590959B01AC01BD01CF0108955F
:103EB000DC0101C06D9341505040E0F70895FB01D3
:103EC0009F01E8944230C4F04532B4F44A3029F4FA
:103ED00097FB1EF4909581959F4F642F77270E9442
:103EE0000F1F805D8A330CF0895D8193CB010097B1
:103EF000A1F716F45DE251931082C9010C94D6210A
:103F00000F931F93DF93CF93CDB7DEB72E970FB6E6
:103F1000F894DEBF0FBECDBF0E891F8986E08C836B
:103F20001A8309838FEF9FE79E838D839E01265E10
:103F30003F4FCE010196688D798DA9010E94B01F77
:103F4000EF81F885E00FF11F10822E960FB6F894DE
:103F5000DEBF0FBECDBFCF91DF911F910F910895AE
:103F60002F923F924F925F926F927F928F929F9289
:103F7000AF92BF92CF92DF92EF92FF920F931F9377
:103F8000DF93CF93CDB7DEB72C970FB6F894DEBF93
:103F90000FBECDBF6C011B018A01FC011782168286
:103FA000838181FFD1C12E010894411C511CF6016F
:103FB0009381F10193FD859193FF81911F018823E6
:103FC00009F4BEC1853239F493FD859193FF819147
:103FD0001F01853229F490E0B6010E94E621E7CF67
:103FE000EE24FF2420E02032B0F48B3269F08C32D2
:103FF00028F4803251F0833271F40BC08D3239F0E5
:10400000803349F421602CC02260246029C02860DC
:1040100027C0206125C027FD2CC0382F30533A30EF
:1040200098F426FF08C08E2D880FE82EEE0CEE0CBB
:10403000E80EE30E15C08F2D880FF82EFF0CFF0C35
:10404000F80EF30E20620CC08E3221F426FD78C1EA
:10405000206406C08C3611F4206802C0883649F40A
:10406000F10193FD859193FF81911F01882309F050
:10407000BACF982F9554933018F09052933028F47B
:104080000C5F1F4FFFE3F9830DC0833631F0833798
:1040900071F0833509F060C022C0F8018081898306
:1040A0000E5F1F4F420171E0A72EB12C16C062E0D7
:1040B000662E712C600E711EF8018080918026FFA3
:1040C00003C06E2D70E002C06FEF7FEFC4012C873C
:1040D0000E94CB215C0183012C852F7717C052E011
:1040E000652E712C600E711EF8018080918026FF74
:1040F00003C06E2D70E002C06FEF7FEFC4012C870C
:104100000E94C0215C012C852068830123FD20C012
:1041100008C080E290E0B6012C870E94E621FA9464
:104120002C858F2D90E0A816B90698F311C0F401E4
:1041300027FD859127FF81914F0190E0B6012C87E3
:104140000E94E6212C85F110FA940894A108B10888
:10415000A114B10461F7F1C0843611F0893649F534
:1041600027FF08C0F80160817181828193810C5F13
:104170001F4F09C0F80160817181882777FD809504
:10418000982F0E5F1F4F4FE6B42EB22297FF09C043
:1041900090958095709561957F4F8F4F9F4FF0E878
:1041A000BF2AA2012AE030E00E941222782E741861
:1041B00045C0853731F43FEEB32EB2222AE030E01D
:1041C00025C099EFB92EB2228F36C1F0803720F486
:1041D000883509F0B5C00DC0803721F0883709F067
:1041E000AFC002C020E1B22AB4FE0BC084E0B82AFE
:1041F00008C0B4FE09C0E6E0BE2A06C028E030E0F0
:1042000005C020E130E002C020E132E0B7FE08C086
:10421000F80160817181828193810C5F1F4F07C01B
:10422000F8016081718180E090E00E5F1F4FA20174
:104230000E941222782E7418FFE7BF22B6FE0BC030
:104240002EEFB2227E1438F4B4FE07C0B2FC05C0D3
:104250008FEEB82202C0A72C01C0AE2C8B2D90E0AF
:10426000B4FE0DC0FE01E70DF11D2081203319F4CD
:10427000E9EEBE2209C0A394B2FE06C004C086784F
:104280009070009709F0A3948B2C9924B3FC14C070
:10429000B0FE0FC0AF1428F4E72CEF0CEA18AF2CD7
:1042A00008C0E72C06C080E290E0B6010E94E6213B
:1042B000A394AF14C0F304C0AF1410F4FA1801C0F3
:1042C000FF2484FE0FC080E390E0B6010E94E62147
:1042D00082FE1FC081FE03C088E590E010C088E721
:1042E00090E00DC0C40186789070009791F081FC39
:1042F00002C080E201C08BE2B7FC8DE290E0B60123
:104300000E94E62106C080E390E0B6010E94E6210B
:10431000EA947E14C0F37A94F201E70DF11D8081D6
:1043200090E0B6010E94E6217720A9F706C080E25E
:1043300090E0B6010E94E621FA94FF20C1F737CE43
:10434000F6012681378102C02FEF3FEFC9012C967D
:104350000FB6F894DEBF0FBECDBFCF91DF911F9196
:104360000F91FF90EF90DF90CF90BF90AF909F9014
:104370008F907F906F905F904F903F902F90089517
:10438000FC010590615070400110D8F78095909520
:104390008E0F9F1F0895FC01615070400190011025
:1043A000D8F7809590958E0F9F1F0895DC01FC0132
:1043B000672F71917723E1F7329704C07C916D9359
:1043C00070836291AE17BF07C8F308950F931F93D0
:1043D000CF93DF938C01EB018B8181FF1BC082FFA8
:1043E0000DC02E813F818C819D812817390764F48F
:1043F000E881F9810193F983E88306C0E885F985AE
:10440000802F1995009731F48E819F8101969F83AB
:104410008E8302C00FEF1FEFC801DF91CF911F9174
:104420000F910895FA01AA27283051F1203181F126
:10443000E8946F936E7F6E5F7F4F8F4F9F4FAF4FAC
:10444000B1E03ED0B4E03CD0670F781F891F9A1FBF
:10445000A11D680F791F8A1F911DA11D6A0F711D73
:10446000811D911DA11D20D009F468943F912AE07F
:10447000269F11243019305D3193DEF6CF01089567
:10448000462F4770405D4193B3E00FD0C9F7F6CF98
:10449000462F4F70405D4A3318F0495D31FD405260
:1044A000419302D0A9F7EACFB4E0A69597958795F6
:1044B00077956795BA95C9F70097610571050895D5
:1044C0009B01AC010A2E0694579547953795279581
:1044D000BA95C9F7620F731F841F951FA01D089519
:0244E000FFCF0C
:1044E2000000414141000A0041444320446174619B
:1044F200203D20253035642C206368616E6E656C2A
:10450200203D2025640A005374617274533120489F
:10451200643434373830200053746172745332205B
:10452200496E697453504920005374617274533256
:1045320031204C73303230496E00537461727453BF
:104542003232204D6F646538622000537461727498
:10455200533233204C73303230526C0053746172D8
:10456200745334204C73303230526F74007465735C
:1045720074005374617274533520436861727320FE
:1045820020200053746172745336206C616E5F692F
:104592006E69740053746172745336206C616E5F7D
:1045A200696E69740A00253032643A253032643A01
:1045B2002530326400C4E0EDEDFBE5000013370165
:1045C2002345C0A80116FFFFFF00C0A80101FFFF9D
:00000001FF
